:1000000000630020851E0100970C0200711E010094
:10001000711E0100711E0100711E01000000000030
:100020000000000000000000000000003920010076
:10003000711E01000000000005200100711E01007A
:10004000F1210100B5390200F1210100F121010087
:10005000F1210100F1210100F1210100F121010054
:100060006B390200F1210100F12101009F390200EA
:10007000F1210100F1210100F1210100F121010034
:10008000F1210100F1210100F1210100F121010024
:10009000F1210100F1210100F1210100F121010014
:1000A000F1210100F1210100F1210100F121010004
:1000B000F1210100F1210100F1210100F1210100F4
:1000C000F1210100F1210100F1210100F1210100E4
:0C00D000F1210100F1210100F1210100EB
:0400DC00FFFFFFFF24
:1000E00053B94AB9002908BF00281CBF4FF0FF319F
:1000F0004FF0FF3000F00CB8ADF1080C6DE904CE04
:100100000BF00CFEDDF804E0DDE9022304B07047DB
:10011000704700BF2DE9F00791E8F807B2E8021038
:100120005B1854EB0C04B2E802104D4156EB0C0680
:10013000B2E802104F4158EB0C08B2E8021059EB3C
:1001400001095AEB0C0A80E8F80780410130BDE84C
:10015000F00770472DE9F00791E8F807B2E80210C0
:100160005B1A74EB0C04B2E802108D4176EB0C06BE
:10017000B2E802108F4178EB0C08B2E8021079EB7C
:1001800001097AEB0C0A80E8F80780414042BDE89B
:10019000F00770472DE9F007524290E87800B1E887
:1001A00080071740DB1918EA020854EB080419EA23
:1001B000020955EB09051AEA020A56EB0A0678C04D
:1001C00090E87800B1E8800717407B4118EA020800
:1001D00054EB080419EA020955EB09051AEA020A68
:1001E00056EB0A0678C080410130BDE8F007704741
:1001F0002DE9F007524290E87800B1E880071740F7
:10020000DB1B18EA020874EB080419EA020975EB13
:1002100009051AEA020A76EB0A0678C090E8780027
:10022000B1E880071740BB4118EA020874EB0804E4
:1002300019EA020975EB09051AEA020A76EB0A06C1
:1002400078C080414042BDE8F00770472DE9F001D9
:1002500052424FF0040890E8300091E8C000A31B20
:100260001340E41AF618EB1B1340ED1AFF1830C0C8
:10027000C0C1B8F10108EED1BDE8F001704700BF80
:1002800000B592E8DC072DE9DC07B1E8805702B43D
:10029000A7FB02510A95A8FB020BE7FB6310E9FBE1
:1002A00062B00B91A8FB0351EAFB6201E7FB64B566
:1002B000E7FB6605E8FB6615CDF830B0A9FB03B691
:1002C000EAFB6316ECFB6356E8FB640BE9FB641B7B
:1002D000EAFB645BECFB646B0D90ACFB0230059CAD
:1002E000EEFB6250E9FB6460EAFB64B0E7FB64315B
:1002F000E8FB6451069CE8FB6461E9FB64B1EAFB3E
:1003000064010E93A7FB0432079CE7FB6462E8FBE1
:1003100064B2E9FB6402EAFB6412049CE9FB6453E7
:10032000EAFB6463089CE7FB64B3E8FB6403E9FB56
:100330006413EAFB64230F955DF8049B99E80006BB
:10034000DDF80080A9FB0854EAFB68B4DDF81080F2
:10035000ECFB6804EEFB6814E9FB6824EAFB6834F4
:10036000DDF80480EEFB6865E9FB68B5EAFB68052B
:10037000DDF81480ECFB6815EEFB6825E9FB6835B9
:10038000EAFB68450F96DDF80880AEFB0876E9FBCE
:100390006806EAFB6816DDF81880ECFB6826EEFBC1
:1003A0006836E9FB6846EAFB6856DDF80C80ECFB32
:1003B00068B7EEFB6807E9FB6817EAFB6827DDF81A
:1003C0001C80ECFB6837EEFB6847E9FB6857EAFBEB
:1003D000686708B000BD00BF2DE9F14F87B0FFF797
:1003E0004FFFDDF81C8008F1200888E8FF00FFBC03
:1003F00087E87F08BDE8F08F00B591E89857A3FB28
:1004000003520195A3FB0401E3FB6420E3FB6710A7
:100410000292A3FB0752E3FB6802E4FB6415E3FBD3
:100420006805E3FB69250391A4FB07B6E3FB692696
:10043000E3FB6A56E4FB670BE4FB682BE3FB6A5BB8
:10044000E3FB6C6B0490A4FB0810E4FB6950E3FB36
:100450006C60E3FB6EB0E7FB6721E4FB6951E4FBF2
:100460006A61E3FB6EB1E4FB6E010592A7FB083203
:10047000E4FB6A62E4FB6CB2E4FB6E02E7FB6E1223
:10048000E7FB6853E7FB6963E4FB6CB3E7FB6C03D2
:10049000E7FB6E13E8FB6E230695A7FB0954E7FB09
:1004A0006AB4E7FB6C04E8FB6C14E8FB6E24E9FB20
:1004B0006E34E8FB6865E7FB6AB5E8FB6A05E8FBB4
:1004C0006C15E9FB6C25E9FB6E35EAFB6E4507967A
:1004D000A8FB0976E8FB6A06E9FB6A16E9FB6C26CD
:1004E000EAFB6C36EAFB6E46ECFB6E56E8FB69B73E
:1004F000E9FB6907E9FB6A17EAFB6A27EAFB6C3745
:10050000ECFB6C47ECFB6E57EEFB6E6700BD00BF6B
:100510002DE9F14F87B0FFF76FFFDDF81C8008F180
:10052000200888E8FF00FFBC87E87F08BDE8F08F5F
:1005300030B44FF0000310F8014B11F8015B013AA1
:1005400084EA050443EA0403F5D1A3F101034FEA69
:10055000D37030BC704700BF4FF0000310F8012B80
:10056000013943EA0203F9D1A3F101034FEAD37041
:10057000704700BF30B411F8014B12F8015B6C40BA
:1005800000F8014B013BF6D130BC70472DE9F00774
:1005900091E8F807B2E802105B1854EB0C04B2E8DB
:1005A00002104D4156EB0C06B2E802104F4158EBD9
:1005B0000C08B2E8021059EB01095AEB0C0A894108
:1005C000B3F1FF3374F1FF3475F1FF3576F10006B6
:1005D00077F1000778F1000879F101097AF1FF3A23
:1005E00051F100015B184C414D4156F1000657F1A5
:1005F000000758F1000859EBD1795AEB010A80E85D
:10060000F807BDE8F00770472DE9F00791E8F80713
:10061000B2E802105B1A74EB0C04B2E802108D41D0
:1006200076EB0C06B2E802108F4178EB0C08B2E8CA
:10063000021079EB01097AEB0C0A89415B184C41F5
:100640004D4156F1000657F1000758F1000859EBEB
:10065000D1795AEB010A80E8F807BDE8F007704746
:1006600018EB040859EB05095AEB060A5BEB070B7C
:100670005FF0000C4CF1000C18EB050859EB060973
:100680005AEB070A5BEB070B50EB0C005FF0000C1A
:1006900051EB0C0152EB0C0263414CF1000CB8EB36
:1006A000070879F100097AF1000A7BEB040BA841F5
:1006B000B141A241B3416CF1000CBBEB050BB04161
:1006C000B941AA41BB416CF1000C4CF001068CF021
:1006D000020718EB060859EB6C095AEB6C0A7BEB26
:1006E0006C0B70EB6C0471EB6C0572EB670653EBF3
:1006F0006C076CEB6C0C18EB0C0059EB0C015AEB13
:100700000C025BF1000354F1000455F1000556EBB7
:10071000DC7657EB0C0770472DE9F14F87B0FFF7F8
:10072000AFFDDDF81080DDF81490DDF818A0FFF7BC
:1007300097FFBDE8000FFFF793FF03B05DF8048B50
:1007400088E8FF00BDE8F08F2DE9F14F87B0FFF793
:1007500053FEDDF81080DDF81490DDF818A0FFF7E7
:100760007FFFBDE8000FFFF77BFF03B05DF8048B50
:1007700088E8FF00BDE8F08F1FB5002301930393C5
:100780000B4B02930B4B1B7883B10378002B0CBFF0
:10079000012302238DF80B3001A9FF2301208DF8DE
:1007A0000C3000F06DFB05B05DF804FB0123F1E7B0
:1007B00010010800800800201FB50A4B01934FF478
:1007C0002473ADF8083008238DF80A3001A90378A6
:1007D0008DF80B3000208DF80C0000F051FB05B0B7
:1007E0005DF804FB8DF30000F7B504460D4641B9F2
:1007F000124B5B78012B04D0019101A80121FFF776
:10080000F3FF23680E4E0F4F0733002D23F007032D
:1008100023600CBF2046002000F00EFB002556F898
:10082000043B0BB1384698470135032DF7D100F052
:1008300077FB23680344236003B0F0BD80080020E9
:1008400048000020820800202DE9F743314C019038
:10085000074601A80E46FFF7C7FFA578E3784FF0DB
:1008600000091D44EDB2C8465FFA89F39D4246D89F
:100870000198033020F00300002E0190414618BF7C
:10088000002000F08FFCDFF89080019DD8F8043044
:100890000544019593B1E17A81B10735002E25F029
:1008A00007054FF025034FF028020CBF2846002013
:1008B000019502F0C5F9019B03440193A17B91B11D
:1008C000D8F804307BB1E37A6BB1019B073323F096
:1008D0000703002E0CBF18460020019305F05EF9B7
:1008E000019B03440193A36A23B1019B06B9A36250
:1008F000283301930198C01B03B0BDE8F083A37AAD
:10090000627A217AE0790CF031F909F10109804429
:10091000AAE700BF80080020480000208FB572B60B
:10092000194BDD6AE5B9BFF34F8F1849184BCA68F8
:1009300002F4E0621343CB60BFF34F8F00BFFDE7CB
:10094000B4FBF6F4DAB20133002CF9D102F1100352
:100950006B440A2603F80C4C32B901A8A847E2E719
:10096000044600230A26EDE7531E04AC54FA83F430
:10097000DAB2C3B2B3FBF6F706FB1733303304F831
:100980000C3CB0FBF6F0E7E78008002000ED00E04B
:100990000400FA051FB5104B9A7A8DF809205A7A8F
:1009A0008DF8082002A81A7ADB79ADF80C20ADF892
:1009B0000A3003F01DFD18B1DB210320FFF7AEFF65
:1009C000012301A88DF804300DF038FB08B1DF21B8
:1009D000F3E705B05DF804FB8008002038B5044655
:1009E00088B30AF0D3FD10B94FF0FF3038BD07F0DF
:1009F0003BFCB0F5FA7FF7D8154D1648EC6200F0D5
:100A0000BDF9154B0024C3E900449C602622214611
:100A1000A81C6C702C70AC620BF00EF90123AB704B
:100A20001B23EB7140F21B332B8140F202336B81AD
:100A30000823AB73EFF3108572B600F027FC2DB9D5
:100A400062B62846D2E76FF01500CFE72046CDE723
:100A500080080020950900004800002010B50028FB
:100A600039D1214C6378022B32D061B1002A35D0C4
:100A7000013906292FD8DFE801F0042E102E1E2E92
:100A800026001378A37001210020FFF7DDFEB0F5EA
:100A9000803F26DA0123637010BD9378F3B1D378D9
:100AA000E3B113781A2B19D953781A2B16D9136876
:100AB000C4F80730E7E713780C4A52680AB1012BF3
:100AC0000CD9E372DFE71388FF2B07D8A373DAE7AB
:100AD0004FF0FF30E0E76FF02C00DDE76FF015001E
:100AE000DAE76FF00B00D7E780080020480000200D
:100AF00070B50D460646E8B1E1B111F0070419D111
:100B000000F094F8C8B130460AF0B4FE0C4E21460D
:100B100086F830002846FFF797FE0EF09FFC96F807
:100B20003000B16A03F006FDFFF734FF0223737053
:100B3000204670BD6FF01500FBE74FF0FF30F8E77F
:100B40008008002010B5074C6378022B05D103F014
:100B50000DFD94F830000AF0A9FE0CF057F80020C3
:100B6000607010BD8008002050B1074B03F11402E3
:100B700053F8041B40F8041B9342F9D1002070473E
:100B80006FF01500704700BF457D020010B5074BA0
:100B90005C7844B903F0B2FC054B064A5A60064A39
:100BA0001A60204610BD4FF0FF30FBE780080020A0
:100BB0004800002079070000B907000010B5054B78
:100BC0005C781CB903F064FC204610BD4FF0FF3088
:100BD000FBE700BF8008002010B5054B5C781CB90E
:100BE0000DF035FA204610BD4FF0FF30FBE700BF97
:100BF0008008002010B5054B5C781CB90DF02AFA6E
:100C0000204610BD4FF0FF30FBE700BF80080020FA
:100C1000024B02681A600020704700BFB408002031
:100C2000014B1B68184700BFB4080020024B18682E
:100C3000003818BF01207047B40800202DE9F041AA
:100C40001B4E031D04463360304604F013FB02289C
:100C5000054606D1164920460BF0CFF92846BDE8D7
:100C6000F08104281CD1314620460BF02BFAB0F558
:100C7000817F03D372210820FFF750FE0028E3D0C4
:100C8000277894F80280384600F028F80028DBD056
:100C90003E2FE3D1404600F061F80028DED1D3E7D3
:100CA0000828DBD1024920460BF0D6F9D6E700BF71
:100CB000B8080020074B4FF0FF3141F6FF72C3E93F
:100CC000001205490022C1E900221F21C3E90212D6
:100CD000704700BF00000020BC0900203F280CD84E
:100CE00001380B4BC0F3421200F01F0053F82230C2
:100CF00023FA00F000F001007047FF2806D04038CA
:100D0000C0F34212034B00F01F00EFE701207047D1
:100D100000000020BC0900200146074B006849681C
:100D20001A4603C240F48C221A6041F0107242F459
:100D3000FF625A60704700BF000000200246024B6D
:100D40000068516803C37047BC0900200246024B8B
:100D50000068516803C37047080000200138064B43
:100D6000C0F3421203EB820300F01F009B6823FADA
:100D700000F000F00100704700000020014B1860F7
:100D8000704700BFC409002010B5FFF793FF0CF0B7
:100D90000BFE034B1B68044603B19847204610BD69
:100DA000C40900200B880288F0B5C3F30E049EB27C
:100DB00004F11803C57CC35A05352A442B4497B265
:100DC00013FA82F3013B4288B3FBF7F313FB0743AB
:100DD0009BB29A42044A93BF22EA0603324013436D
:100DE0009BB20B80F0BD00BF0080FFFF10B5114B20
:100DF00000EB41041A786389B3FBF2F303FB02238F
:100E0000013A1A44B2F5706F027928BF00231A44E0
:100E10008378B2FBF3F0194403FB1020091AB1FBED
:100E2000F3F003FB101313446FEA43436FEA534399
:100E3000638110BDC809002010B5104BC8B15A78A5
:100E4000022A04D040F22B111720FFF767FD03227E
:100E50005A70026812F0070102D04FF49871F3E75C
:100E60005C685A6022440260C3E903119A605961C8
:100E700010BD0122C3E901005A70F9E7C80900203A
:100E80002DE9F041254E96F801E00EF0FD0CBCF185
:100E9000010F04D040F245111720FFF73FFD91F8F4
:100EA0000680B8F1080F02D940F24711F4E7CF7974
:100EB00097B34546022D726838BF02257B1D5C0042
:100EC00002EB43036A1E13446D422B408D88454458
:100ED000013DC8F100022A404FF6FE75AA4202D930
:100EE0004FF4A971D8E7BEF1030F12D106EB8000D1
:100EF0001C1BC56815B140F25711CDE7C460A7703F
:100F0000228084F803C0087A09682071080CE08008
:100F1000218107FB02337360BDE8F081C80900201E
:100F20002DE9F047364C6378012B65D0032B04D0B4
:100F300040F267111720FFF7F1FCD4E901329A4221
:100F400002D04FF4B571F5E72546002305F80C3BB8
:100F50001E460222994655F82200013A58B190F8EF
:100F600004808178B8F1FF0F2FD180F804908E4271
:100F70003CBFCEB20123511CEDD103B12670022635
:100F800040F6FF6955F826709FBB013EFAD2042354
:100F900063700020BDE8F08755F82CE0BEF1000F2B
:100FA00006D09EF804A0C24504BF9EF802E0774434
:100FB0000CF1FF3CBCF1000FEEDA3944FF2907D9F0
:100FC00003B126704FF48371B4E794460027F1E72C
:100FD0000771CCE707EB41033846A3F80A90FFF707
:100FE00005FF08F10108BB785FFA88F18B42F1D860
:100FF000CBE74FF00008F6E7022360686370C9E7AB
:10100000C8090020F8B54FF6FF730380184B03EBB7
:1010100081030546D868B8B186780379B3FBF6F248
:1010200006FB1233DBB219460A1D00EB4202B2F98D
:1010300002705488002F09DB0131B1FBF6F206FB88
:101040001211C9B28B42EFD10020F8BDFF29FBD0AD
:10105000C4F30E03C4782B8024B94FF4D971172040
:10106000FFF75CFC5380BDE8F8400BF05EBD00BFAD
:10107000C80900201D4B03EB810370B5DC680546F1
:1010800044B3030404D54FF4E0711720FFF746FC86
:10109000014620460BF02BFDFF28014604D02046D8
:1010A000BDE870400BF041BDA078B5FBF0F300FB4C
:1010B0001353DBB219460A1D04EB4206B6F902606F
:1010C000002E09DB0131B1FBF0F200FB1211C9B2B5
:1010D0008B42F0D1002070BDFF29FBD08B4204EB86
:1010E00042021CBF0023E3705580D8E7C8090020E6
:1010F000094B03EB810310B5DC68014620460BF079
:10110000F6FCFF28014604D02046BDE810400BF055
:101110000CBD002010BD00BFC8090020F8B5104B61
:1011200003EB81030746DC68014620460BF0DFFC39
:10113000FF28054611D0E688238953EA064606D0E3
:10114000014620460BF0F1FC01463846B0472046E8
:101150002946FFF74BFE0020F8BD0320FCE700BF47
:10116000C809002038B50E4B827903EB8203044690
:10117000D86808B9022038BD8278E1799142F9D265
:101180004B1CE37100EB41035D89B3F90A30002B7E
:10119000F3DBA5800BF0C9FC20600020EBE700BF6B
:1011A000C809002070B5044610F003000E4603D0B5
:1011B00049211820FFF7B2FB0BF03DFC054624B196
:1011C0000348314604600BF036FC284670BD00BF72
:1011D000E00900202DE9F04F1E4C85B092462268B0
:1011E000BDF83CB098468146BDF838300D461AB976
:1011F0005B211820FFF792FB1A460A215046039301
:101200000BF0C4FA5A460646092140460BF0BEFAD6
:101210003118074620680BF039FC039BC9F8000021
:1012200018B9286005B0BDE8F08F84192C60D9F892
:1012300000000093524631460A230BF059FA286801
:10124000CDF838B009234246394605B0BDE8F04F25
:101250000BF04EBAE009002070B50E4604460BF0C4
:101260009EFA054630460BF09AFA044B2A1821469E
:101270001868BDE870400BF033BC00BFE0090020E7
:10128000014B18680BF0F5BBE0090020134B01225D
:1012900000214FF0FF309A60C3F80012C3F8080332
:1012A000C3F80015C3F804259A60C3F80803C3F80F
:1012B0000015C3F804250A490A4A03F580334FF4A0
:1012C0000040C3F80825C1F88000BFF34F8FBFF37B
:1012D0006F8FC1F88001C3F80825704700F0004007
:1012E00000E100E00000F63F0A461E2302F8033B3F
:1012F0000448C368C1F803300369536043699360CD
:10130000704700BFE8090020024B5A8C02435A8400
:101310005B6A1847E8090020014B00215B6A184707
:10132000E809002010B5154C06F03EF905F076FDF1
:10133000208DFFF7F1FF237E6BB12246104952F852
:101340000C3BE36063685360A368936004F1190089
:1013500002220DF06DFB236B93F87A30022B02D141
:10136000084804F0D1FBA36B94F8341094F83500CE
:101370009847002384F83C3010BD00BFE8090020E6
:10138000E9120000140A0020034B93F83C300BB123
:10139000FFF7C8BF704700BFE809002037B5654CAC
:1013A000256B95F8A42000238DF8053094F83D3086
:1013B0000AB10433DBB295F8681028B9FF2B03D1CA
:1013C00095F869308B4202D0FF2005F0C1FF95F8F7
:1013D0009A30032B00F29680DFE803F00276798CD6
:1013E00094F83E30ADF806305348A5F8583003F075
:1013F000B9F900284DD0216C8020FFF785FF01232B
:1014000085F8953095F89B30216CDB0003F00802DD
:101410000B7803F0F303134395F89C20920002F03D
:101420000402134323F0100203F00303032B0A709A
:101430006BD1CB78022B68D10023206C0278134348
:10144000037095F8A330002B6FD04378002B6CD03D
:10145000E06E06F02BFA012384F88830D5E94023AA
:10146000216CE06EC4E9202305F08EFC95F869102C
:10147000012006F077FA226C1188A4F8991091786F
:101480002E4A012384F89830917084F83C3003B0E0
:1014900030BD606C0DF105020DF106010BF0A1F9F4
:1014A000206488B195F8E13073B99DF805302BB907
:1014B00003808370206C01210DF003FABDF8061043
:1014C000206C0DF07CFA9DE71D4B23649AE7B5F87C
:1014D0005830606CADF806300DF105020DF10601D3
:1014E0000BF07FF9206400288CD140F2D521272011
:1014F000FFF714FA104803F035F9002882D140F2C2
:10150000DE21F4E740F2EB21F1E7606C0BF0D4F957
:1015100048B9236C1B7803F00303032B8CD003F032
:1015200047F9002888D1102387E706F0BFF905F0B6
:1015300075FC9BE7E8090020280A0020810A0020AA
:10154000300A002008B5094B93F83C20022A04D049
:101550004FF40F712720FFF7E1F9DA7A42F0010228
:10156000DA72BDE80840FFF7DDBE00BFE8090020E1
:101570002DE9F7434C4C94F83C30256B012B064683
:101580000F4604D040F275412720FFF7C7F995F8C0
:1015900094302BB1002185F894100420FFF7B4FE9D
:1015A000216C0B7803F00303032B05D195F89A30D7
:1015B00013B90220FFF7A8FE226C137803F003038F
:1015C000032B03D05378002B5DD1012385F89A308B
:1015D00095F8A430B3B1D5E94201236B94F83D905E
:1015E000C4E920014FF0000893F8690084F888806E
:1015F0000BF00EFB2D49CDF8008003464A46012032
:1016000005F07CFB002E40D1002F3ED0D4F89C305A
:1016100030469847002838D094F83430ABBB256B5F
:10162000D4F8A430C4F8A03095F8A43094F83D0064
:1016300083BBFF2895F8691003D195F868308B4279
:1016400001D005F085FE95F8A43033B3E06E06F0C6
:101650002DF9002384F88830D5E94223E16ED4F8CF
:10166000A000C4E9202305F08FFB002006F030F92C
:1016700095F86810002006F075F9022384F83C30D4
:1016800003B0BDE8F0830223A0E703B0BDE8F04358
:10169000FFF748BE0430C0B2CBE7D4F8A00006F094
:1016A00005F905F0BBFBE0E7E8090020580A002037
:1016B000044B93F83C2002F0FF000AB918767047FB
:1016C0000C207047E80900200B4B0C4A70B5064609
:1016D0000D461A60FFF7ECFF18B1DE212720FFF757
:1016E0001DF9074C012104F148000DF0EAF8C4F897
:1016F000A460E56670BD00BF54000020D41C00004B
:10170000E8090020024B012283F8A820704700BF9F
:10171000E8090020F0B5734D85B002AC84E8030001
:1017200095F83C100A9F01F0FF0611B90AB103B108
:1017300027B940F24F112720FFF7F0F894E8030093
:1017400005F12C0C8CE803002C6B6A62C5F89C3008
:10175000AF6385F8A86085F8346085F8A96085F8DE
:10176000356085F898606E842E8505F01DFE05F0C5
:1017700055FB94F96C0005F0A9FE606A06F088F844
:10178000E06905F0A9FE94F8B40005F0CBFE94F8EA
:101790006810304605F098FF002800F0A080524BFA
:1017A000186806F07BF823696B646369C5F8AC3090
:1017B00094F877308BB9216F79B1B4F8CE20B4F8B2
:1017C0009830934209D1B4F8742094F87600134409
:1017D000A4F8CE30012206F0CBFC444E04F5887309
:1017E00004F5907718685968324603C20833BB4243
:1017F0001646F7D1D4F82021C5F889205A683C4B09
:101800005A602B6B93F89E2093F86860253A012A62
:1018100003D993F89F20252A51D193F84A322BB14E
:10182000012E03D0012B0CBF0126022604F1300744
:10183000314638460DF08CF931460CF0E9FEA38FA5
:1018400094F86910834228BF0346384685F83E3035
:101850000DF067F994F8691094F8A470B4F8446036
:10186000082908BF04210CF0D3FE0FB9043080B260
:10187000B04294F8A33028BF304685F83D008BB1C4
:10188000012385F88830D4E9402394F86800C5E93D
:1018900020230BF0BDF90346002014490090FB22E1
:1018A00005F02CFA0120FFF779FD124BD3F85035E3
:1018B00023F00803032B06D140F2F9113BE7042E75
:1018C00008BF0826B2E700232B606B60AB60B4F85A
:1018D00098306B8023882B8094F8B4302B7105B03E
:1018E000F0BD00BFE809002054000020580A002085
:1018F000710A00200010004010B50F4C94F83C30E5
:1019000083B9FFF70FFD236B93F8771001F0FF0207
:1019100089B9196F79B1BDE8104093F87600114686
:1019200006F026BC94F83C30012BECD040F20E219E
:101930002720FEF7F3FF10BDE8090020014B1876C1
:10194000704700BFE80900202DE9F3411F4D8207D1
:101950002C6B06460F4624D5D5F8B03023B940F29B
:1019600066412720FEF7DAFFB5F8B420D5F8A010BD
:101970001846033291F801800AF0E6F80DF10202F0
:1019800001A9C5F8A000D5F8AC000BF04AF8019801
:101990000BF031F8012238604146D5F8AC000AF06E
:1019A000D6FFF3070ED5D4E94232013342F10002EB
:1019B000C4E9423294F89C30012B0CBF0023012370
:1019C00084F89C3002B0BDE8F08100BFE809002037
:1019D0002DE9FF47AF4C0023CDE9023394F83C30AA
:1019E000D4F830A0022B07460E4604D04FF49D6178
:1019F0002720FEF793FF238D5A0606D44020FFF7D9
:101A00008BFC238D43F0400323859AF8A430002FEC
:101A100000F04681ABB105F02FFA05F013FA80B95A
:101A2000D4F8A0305A7862B11B789AF89C20C3F39E
:101A3000C0039A4205D1012384F83530FFF772FCC8
:101A4000F8E0D4F8A0305978A4F8B41009B3D4F869
:101A5000AC000AF052FFC4F8B000238D9AF89B2026
:101A600043F480732385D4F8A0301B78C3F380033C
:101A70009A4200F0E280256B95F89A30ABB3022BC6
:101A800011D1606C02A90AF0CFFE28B94FF4797128
:101A9000AEE7C4F8B010E0E7D5E94032013342F1D7
:101AA0000002C5E9403295F895304FF0000885F8FE
:101AB0009A8093B185F8958002F064FE10B940F2E7
:101AC000FB3195E741460820FFF71EFCD5E940327F
:101AD000013342F10002C5E9403295F89B30012BF9
:101AE0000CBF0023012385F89B30238D43F48063D2
:101AF00023854FF00008D4F8A0109AF89C200D78A8
:101B0000C5F3C0039A4240F0B98005F00305032DE8
:101B1000D4F8309000F09380002D40F09B8099F82D
:101B20009C30013B18BF012389F89C30D4F8A030C9
:101B30005B7833B1D9E94232013342F10002C9E99D
:101B400042329AF8A33093B10123216B84F8883094
:101B5000DAE9402391F86800C4E920230BF058F833
:101B6000034600204C490090FB2205F0C7F8002EE8
:101B700040F0A58094F8A930012B00F2A080D4F8A1
:101B80009C3001209847002800F0998094F8343068
:101B9000002B40F0948094F89930C3F30012DB06D8
:101BA0005FBFD4F8A4301B78C3F30013C3F1010066
:101BB000D4F8B03048BF304623B9B4F8B4300BB1D4
:101BC000002A7CD000287AD1638C002B77D1FFF7D4
:101BD000E5FB1DB103A90220FFF7B6FEB8F1000F27
:101BE00004D0B4F809300133A4F80930002F6AD0CA
:101BF000B4F805300133A4F80530002384F8A93087
:101C0000264803F05FFF029840B10AF0F4FE216B12
:101C100000234372072201300CF0F8FE039B33B11E
:101C2000216B00221A720C2203980CF0EFFE002E9A
:101C30007FF404AF04B0BDE8F087B8465BE7238DBE
:101C4000012043F4006389F894002385FFF75CFBCF
:101C5000002564E74B78002BFAD0228DD4F8B050E1
:101C600042F400622285002D3FF46BAFFB2B07D8B6
:101C700094F8A8305BB12020FFF74EFB002560E709
:101C800094F8343043F0100384F83430F6E73D46DE
:101C900045E700BFE8090020580A0020140A002088
:101CA0000BB105F01FF994F8A930013384F8A9307D
:101CB000238D002543F400732385A84641E705F0F2
:101CC00071FE012685E7B4F807300133A4F8073028
:101CD00096E700BF45150000D119000071150000FE
:101CE00089130000024B1B68002283F868207047AC
:101CF000A00A002008B503F03FF9014B187008BD99
:101D00001000002008B5FFF7F5FF044B18680AF033
:101D1000E5FF05F049FC032008BD00BFA00A002034
:101D2000044B1A6892F85020032A01D000F0ACBF8F
:101D300058687047A00A002010B5064C20680AF0C9
:101D4000CDFF2068012380F86830BDE810400BF01B
:101D50004BBB00BFA00A002008B5FFF7E1FF20B988
:101D600040F2F2413220FEF7D9FD05F09FFD002040
:101D700005F0AEFD024B1B68042283F8682008BD05
:101D8000A00A002070B50646FFF7CAFF054620B935
:101D90004FF49A513220FEF7C1FD294C236893F885
:101DA0005030013B022B02D941F24631F2E77EB1BD
:101DB0000CF061FD38B1236893F86820022A0FD82F
:101DC00041F2C621E6E728460CF06DFD0028F2D16D
:101DD000236893F86820022A19D841F22631D9E7FE
:101DE00093F86820082A02D941F2C721D2E793F874
:101DF0006830A26803F180431269033B284652F819
:101E0000233098470C2814D941F25B31C2E793F88C
:101E10006820082A02D941F22731BBE793F86830DD
:101E2000A26803F180435269033B52F8233098477C
:101E3000E8E7A368DB68BDE8704053F82030184736
:101E4000A00A002008B5074B93F900207F2A04D18F
:101E500040F243313220FEF761FD02707F221A709A
:101E600008BD00BF1000002010B504788EB004F04B
:101E70000F04224604A90BF097F805F095FBFFF735
:101E800039FF042C36D11D4A059B1468197894F843
:101E90007B2091422ED1597894F87C20914229D10F
:101EA000997894F87D20914224D1D97894F87E20B5
:101EB00091421FD1197994F87F2091421AD15A7911
:101EC00094F880309A4215D19DF8212094F8823000
:101ED0009A420FD10DF10F00FFF7B4FF9DF90F00EB
:101EE00094F8813094F8902094F87110009004A830
:101EF00000F07CFF03200EB010BD00BFA00A002040
:101F000010B50F4A136893F86810022904D841F2FB
:101F10003D413220FEF702FD93F86810082902D9EE
:101F200041F23E41F5E793F86830926803F180434F
:101F30009268033BBDE8104052F82330184700BFB9
:101F4000A00A002010B518B1BDE81040FFF7F4BE9C
:101F5000E9B10F4A136893F86810082904D841F2D0
:101F60000D413220FEF7DAFC93F868100C2902D9F3
:101F700041F20E41F5E793F86830926803F180432F
:101F80005268093BBDE8104052F82330184710BD95
:101F9000A00A002070B500F09FFEFFF7C1FE0546C5
:101FA00020B940F2EE313220FEF7B8FC274C206811
:101FB00090F868305BB190F86830012B07D00021B1
:101FC0000BF0D7F918B9BDE87040FFF7B5BE23682C
:101FD0001F4A93F87230D65C304605F0A3FA2368A6
:101FE000012183F88160252005F0B2F9284605F02B
:101FF0005DFC0121084605F09BFAE81C266802F00A
:102000006FFE236886F8740093F8743023B104F0EF
:1020100003FE402005F080FC236893F85030023B1B
:10202000012B03D80121002005F09CFC236840F619
:102030000802A3F87020002283F87720A3F8782004
:1020400083F89020032283F8682070BDA00A002046
:102050006C4C020070B5374C236893F86830012B44
:10206000054604D940F6D5013220FEF757FC05F0AD
:102070009BF905F05DFC04F0E9FD2F4805F00EFC2E
:102080002E4805F005FC2E4805F026FA6B7A1BB1A8
:1020900020685C300CF0ACF92B7A032B02D14FF4A2
:1020A0001161E1E72068B3B9032190F8722090F83C
:1020B00048500E460132B2FBF6F303EB4303D31A4A
:1020C000DAB245FA03F3DB0703D4013911F0FF015B
:1020D000F0D180F8722090F9540005F0F7F92568E6
:1020E00095F8753013B3D5E922126FF000439A4288
:1020F00008BFB1F1FF3F19D00DF030FAD5E9222326
:10210000904271EB030311D3012002F0FBFD68B193
:10211000256802F0C7FD04460DF020FA094BA4FB28
:1021200003341B1844EB0104C5E92234BDE87040B8
:10213000FFF730BFA00A0020C4000020555555000D
:10214000D6BE898E40420F002DE9F041564D06461D
:10215000D5E90070002303704370884605F0A6FBA4
:10216000032E3CD16A68137823F00F0343F0030376
:1021700013700C23537007F17B0168680CF05DFB52
:1021800097F8821068680CF06CFB2B6893F8752048
:1021900093F8417003F142047AB193F85020032A76
:1021A00071D193F84920002A6DD093F8730002F0A2
:1021B00017FE00281CBF04460127686821460CF062
:1021C0002EFB686839460CF03FFB384BD3F80431DE
:1021D000002B5BD040F237613220FEF79FFB052ECB
:1021E000C9D16C682868237823F02F0343EA48118B
:1021F000222241F0050121706270C36CDB69C4F8D2
:102200000F30C36C5A6AE274110A120C21756275A0
:102210009A69998D40F2E24CB1FBFCF1A175996A83
:10222000B2FBFCF2B1FBFCF16276E175C2F307226E
:10223000C1F307212176A2761A8CE276120A227760
:102240005A8C6277120AA277D3F8A720C4F81F200D
:1022500093F8AB3084F82330C36C93F8B23094F821
:10226000242003F01F0322F01F02134384F82430BC
:1022700002F0C4F994F8243003F01F0343EA40133A
:1022800084F8243077E793F8700090E7052E08D1A2
:102290002B682168DA6CC2F80A10A188D181DB6C46
:1022A0005F72BDE8F08100BFA00A0020001000406E
:1022B00010B50B4C00210320FFF746FF20680321D7
:1022C0000BF057F818B9BDE81040FFF735BD0121F4
:1022D000084605F047FB2368092283F8682010BDF3
:1022E000A00A002070B5FFF71BFD054620B940F29B
:1022F0005C513220FEF712FB134E30680A2380F83F
:102300006830002101F00AF83368DA6C2B7892F813
:10231000A64004EA531404F0010421460520FFF707
:1023200013FF306804210BF024F818B9BDE87040A1
:10233000FFF702BD2B783268C3F3401382F8833075
:10234000D36C83F8A64070BDA00A002008B5FFF743
:10235000D1FC054B18680AF0C1FC05F025F9BDE871
:102360000840FFF717BE00BFA00A00202DE9F04388
:10237000044693B0FFF7BEFC267806F00F06204611
:10238000324608A90AF010FE099D9E4C75B39DF8CF
:102390003130012B41D16B7903F0C003A3F140052B
:1023A0006B426B41256895F8742062B15BB10CF00B
:1023B0006DF8236885F8700093F8702083F8712019
:1023C000012283F87720236893F87000082826D12B
:1023D00009999DF831000CF07EFF226809990546A5
:1023E00070329DF8310002F099FB50B32368062E3D
:1023F00093F8492034D8002A18BF1546099A83F863
:1024000079500AB39DF8311083F882101168C3F82F
:102410007B109288A3F87F2016E00023C2E706AA6B
:102420000DF1170102F044FC20B940F65131322081
:10243000FEF774FA9DF8170006A90CF04CFF05464C
:10244000D4E7236883F87900062E00F2D480DFE811
:1024500016F06600DB000900D200D200D200300086
:102460000025CBE705F0A0F8256895F879303BB951
:10247000032520680AF032FC284613B0BDE8F0833B
:1024800095F85030013B012BF2D806A8FFF7DAFC93
:102490009DF91830029395F88130019395F87130C9
:1024A000009305F14202FF23022108A800F020FC5E
:1024B000DEE7256895F87930002B00F09C8095F8D0
:1024C0005030022B18D106A8FFF7BCFC9DF918303C
:1024D000029395F88130019395F87130009305F1DE
:1024E0004202FF23062108A800F002FC2368002214
:1024F00083F890200925BCE7012B7CD106A8FFF7C3
:10250000A1FC9DF91830029395F88130019395F85C
:102510007130009305F14202FF230621C5E72568CB
:1025200095F87930002B66D095F85030022B15D1F4
:1025300006A8FFF787FC9DF91830029395F88130C3
:10254000019395F87130009305F14202FF230021B9
:1025500008A800F0CDFB23680122C9E7012B10D1A8
:1025600006A8FFF76FFC9DF91830029395F88130AB
:10257000019395F87130009305F14202FF23002189
:1025800093E7032B3AD1099B95F85620197891428D
:1025900025D1597895F85720914220D1997895F80E
:1025A000582091421BD1D97895F85920914216D1E3
:1025B000197995F85A20914211D15A7995F85B30E2
:1025C0009A420CD19DF8313095F85520981A434223
:1025D000434195F85220012A03D10A2549E70023F7
:1025E000F7E7002BF9D195F87330082B03D095F855
:1025F00070209A42F1D004F0D7FF39E740F6F54158
:1026000015E700BFA00A002023689DF8322093F848
:10261000755093F87970012A85F001057DD10A9AE9
:10262000567906F0C006A6F140014E424E4193F89D
:102630005020032A73D193F84920002A6FD093F8D1
:102640007380B8F1080F6DD0404602F045FA0028BB
:1026500018BF0546002E68D00A99404602F086FB56
:102660008146216891F84100B9F1000F5FD040F038
:10267000020891F85030032B62D1099B91F8562043
:102680001E78964255D15E7891F85720964250D1E7
:102690009E7891F8582096424BD1DE7891F85920D7
:1026A000964246D11E7991F85A20964241D15A79E4
:1026B00091F85B309A423CD19DF8316091F85530E9
:1026C000F21A5642564191F87030082B33D091F8E7
:1026D0007380A8EB0303D3F1000848EB0308B9F1BA
:1026E000000F2BD135B10A9B9DF8322042310BF0FF
:1026F00089FE0546002F3FF47EAF236893F85230E1
:10270000012B06D0002B7FF476AF56EA08033FF486
:1027100072AF002D7FF461AF6DE7002687E793F875
:1027200070808EE74FF000099BE7B14699E780463D
:102730009FE70026C7E74FF00008D0E70125D9E75B
:1027400004F032FF002F3FF493AE20680A9B9DF8FF
:10275000322000F1420190F841000BF053FE18B90D
:102760002568B9F1000F10D006A8FFF76BFB2268AF
:102770009DF91830029392F88130019392F87130EC
:1027800000934232434601218FE695F85130023BD7
:10279000012B3FF66DAE002E3FF46AAE06A8FFF7A0
:1027A00051FB9DF91830029395F88130019395F80B
:1027B0007130009305F14202FE23E4E713B5414C6A
:1027C00020680AF08BFAFFF78DFA236800225A720C
:1027D000DA6C1188598140F2E2409169B1FBF0F165
:1027E0001984118C528C9A844FF47F42DA844FF60C
:1027F000FF7259841A85694660680CF017F82168E1
:1028000091F8753001F11402EBB163681B785B0637
:1028100019D59DF8053003F0C003402B13D1009863
:10282000BDF804304861938091F87100082801F1E7
:102830000E0237D00D3102F03BFA38B941F2913136
:102840003220FEF76BF800234B61ECE723685A7BDC
:1028500042F002025A73D3F87B20C3F81A20B3F86F
:102860007F20DA83236893F95410D86C02F068FB58
:102870002068154902220CF0C9F820681349C36C7E
:102880001A88A0F8332093F8A63080F83530022259
:102890002A300CF0CDF82068022102B0BDE81040CB
:1028A00000F03CBD91F882304B73D1F87B30C1F819
:1028B0000E30B1F87F3093800023C1F81A30CB83FB
:1028C000D0E700BFA00A002059CC000031CC0000A6
:1028D000C36C10B5044623B940F221313220FEF713
:1028E0001DF8022242721B88438103490CF08EF8C6
:1028F0000023E36410BD00BF59CC0000014B024A25
:102900009A607047A00A0020AC000020026810B551
:1029100022B940F654113220FEF700F8034B1A603A
:102920009B68BDE810401B68184700BFA00A002044
:1029300038B590F84030054613F0FD0F14BF012064
:10294000002085F8410005F1420101F057FF95F89C
:102950004030023BDBB2012B94BF0123002385F8FA
:10296000753015D802F09EF904460CF0F7FD094BBE
:10297000A4FB03341B1844EB0104C5E922340020F6
:1029800002F0C0F920B940F6CB113220FDF7C6FFA6
:1029900038BD00BF40420F000249022236300CF021
:1029A00035B800BF47CC0000F8B5184F0E46786028
:1029B00001210020FEF75EFB054620B940F67201BA
:1029C0003220FDF7ABFF4FF48872002109F034F993
:1029D00001210846FEF74EFB044620B14FF48872F1
:1029E000002109F029F9BB6813B940F67C01E7E73B
:1029F00030460AF04DFA28460AF0A9FC24B12046D8
:102A0000BDE8F8400AF0A3BCF8BD00BFA00A002052
:102A100010B5084CA0F1080120680AF0EEF8EFF3B9
:102A2000108272B623790133DBB2237102B962B628
:102A300010BD00BFAC0A00202DE9F04307468DB061
:102A40000C4600200121FEF753FB054620B940F259
:102A5000C9113320FDF762FFA0300AF052FCC0B963
:102A600028460AF05AF9054698B93846FFF7D0FFCC
:102A70008DF8045002238DF805309DF804300020B5
:102A800063F307009DF8053063F30F200DB0BDE838
:102A9000F08307F1250602A930460AF0B5FAE21CD8
:102AA00007F10903154653F8041B42F8041BB3420F
:102AB000F9D1FA7C12F0100F04F11F030AD051076C
:102AC0000FD49DF8186005991846324609F03CF875
:102AD000E6720346667B04222270F20604D4562175
:102AE000B7E70022E272F5E73D4A294651F8040BA8
:102AF00042F8040B9942F9D194F80B80394D4246C3
:102B000005F1210009F020F816F0040104F1060C8B
:102B100005F1070E04F10D0026D02B7EFE2B23D1EC
:102B2000A97961716E79D5F80710E670C4F80610BE
:102B30004FF01108BEF8041084F8008001262671B9
:102B4000ACF804102373D5F81930C4F80D3095F99A
:102B50000E20B5F81D308380E2743846FFF758FF29
:102B600004238DF8043085E795F8059084F80390E8
:102B700008F10A0313FB09F302336370AB79637145
:102B8000D5F80730C4F806300322BEF804302270AE
:102B9000ACF8043004EB0803AD7B84F80C805D7363
:102BA00016F0080306D004232371B8F11F0F11D9C2
:102BB000A6214EE706F00306032EF5D009B1012346
:102BC000F2E7022E01D12671EFE70EB92271ECE790
:102BD000A3213EE70449424608F0B6FFBDE700BF27
:102BE000B10A0020AC0A0020CD0A002010B5074C25
:102BF000236C43B9206809F0F0FF206418B94E2116
:102C00003320FDF78BFE206C083010BDAC0A00208D
:102C10000A4A08B5136C23B94FF4D7713320FDF776
:102C20007DFE0833984202D040F2AF11F6E7002350
:102C300013641379013BDBB2137108BDAC0A0020A9
:102C4000253270B592B205460C461E4609F09CFF2F
:102C500045B1054A0023156082F8444082F845607A
:102C60001471136470BD00BFAC0A002010B5054C90
:102C7000206809F0ACFF0023236494F844302371EA
:102C800010BD00BFAC0A002070B5124D2E6CEEB91D
:102C9000286809F0A2FF286420B940F2851133208A
:102CA000FDF73CFEFFF7A2FF1C2204463146093027
:102CB00008F0C2FF7F2384F82330FF23E375A3725B
:102CC0002377E37C012262F34613E374286C2D30F2
:102CD00070BD00BFAC0A002010B5044C216C21B1BE
:102CE000206809F08AFF0023236410BDAC0A00208D
:102CF0002DE9F84F1D463B4B9DF828A01B799DF808
:102D00002C809DF93090012B06468B46174666D0E5
:102D1000FFF76CFF1C2204460021093008F08CFFED
:102D200001236372BBF1060F52D8DFE80BF00440B9
:102D3000465151514A00E37C23F0130343F013033F
:102D4000E37404F10A0304F10B02514630460AF021
:102D50000FF90123E27C63750023A37552074FF03E
:102D6000FF0384F81290E37537D5AA1E012A8BBFA2
:102D7000B2683A681168C4F81D2088BFC4F81D10F5
:102D800004F11D0394BFBA8892889A8025777F2327
:102D900084F8233084F824802046FFF739FF00238D
:102DA000237211492046BDE8F84F0BF03BBEE37C8F
:102DB00023F0150343F01503C2E7E37C43F010034F
:102DC000BEE7E17C21F0120141F01201E174B8E7A5
:102DD00040F239313320FDF7A1FD2377D7E7BDE875
:102DE000F88F00BFAC0A0020392A00002DE9F04717
:102DF0001E461E4B9DF920A01B79012B804689465B
:102E0000154631D0FFF7F2FE044601271C220021AF
:102E1000093008F011FF04F10A0304F10B024946DE
:102E2000404667720AF0A4F8E17C84F812A045F0ED
:102E30001A0521F01B0105F01B050D43FF23E57466
:102E4000E375237700257F236775A57584F8233004
:102E500084F824602046FFF7DBFE257204492046F3
:102E6000BDE8F0470BF0DEBDBDE8F087AC0A0020FE
:102E7000392A00002DE9F04F8DB09846BDF8583042
:102E80000393054691468A460CF068FBD5E9302B42
:102E900007460291B8F1000F00F0868128460AF03B
:102EA000B8F8831AD3F1000848EB0308B9F1000F12
:102EB00000F0EA8017F5FA630493029B43F10006E1
:102EC00000F01EFDD5F804310446A3B30021D3F869
:102ED000100200F01FFD84420146D5F8040110D015
:102EE00000F50270059100F0E1FC00230599C5F89A
:102EF000F830D5F8040198B940F221712120FDF78E
:102F00000DFD00F50273D0F81022C5F8F830D5F8A1
:102F1000E03093422CBFC5F8E030C5F8E020E8E788
:102F200021B3D1E90032D1F808C013EB0C0342F110
:102F30000002C0E98232214605F1D80000F0B6FC5B
:102F4000CCB1D4E90031A068D5F8C0200592C018F2
:102F5000049B41F10001CDE900360AF0D8FA059A48
:102F60008242044607D240F28F31C7E70022002395
:102F7000C0E98223DFE7049BE418D5F8C03046F1AE
:102F80000006E31A66F10002C5E93632039B002B06
:102F900070D14FF0FF326FF00043C5E928230120C4
:102FA00004F042FED5F8A0300393D5F8A430049382
:102FB000039B049A1B1B00F523404FF47A7100F128
:102FC000A100B0FBF1F000F23D2162EB0600012B05
:102FD00070F100024FF00002C0F2DF809B45824199
:102FE00000DB9B46D5F8C400834528BF8346C5F85F
:102FF000CCB0B9F1000F05D0D5E93623C5E92A4692
:10300000C5E92E234FF00009C5F8C810C5E92C46C4
:1030100022468AF80B90AAF8089033462846059174
:103020000AF042F805998AF80A00CAF80410B8F1C3
:10303000000F00F0B48001238AF80030039B029A4D
:10304000D81B049B63EB0203012873F1000206DB2B
:10305000654F874279EB0303ACBF8146B946A9EBC4
:103060000107CAF810708B4534BF002001200DB055
:10307000BDE8F08F039842F2107321463246E0FB20
:103080000312C5E928128AE790423CD1D5E92812FB
:103090006FF000439A4208BFB1F1FF3F78D00120A2
:1030A00004F0C2FD029A8DF8189040F20B13FB1841
:1030B00042F1000200F523404FF47A74CDE90A3260
:1030C000A1304FF40033B0FBF4F000F23D2406A829
:1030D0000794089306F0B2FF10B940F2BB410DE728
:1030E000D5E928320A99029E5B1A0B9962EB01021C
:1030F0001B1B62F10002002A3C464FF00108B8BFDA
:103100004FF0000B4BE7D5E93636FC1A9B18B4FBA1
:10311000F2F402FB04F446F10006E418A4EB070302
:1031200046F10006B3F5857F04D8A41846F10006E1
:10313000C84634E701208DF8189004F075FD00F5BD
:1031400023404FF47A73A130B0FBF3F000F23D203E
:103150000790D5E93603D5F8C040D5F8B010ADF8E2
:1031600020900A1AB2FBF4F26243121843F10003F2
:103170002846CDE90A238DF8239009F095FF2146D2
:103180008DF8220006A80BF012FADDE90A46CFE717
:10319000029E3C464FF0010801E7934622E7CAE948
:1031A00004468AF800805EE7B9F1000F7FF482AE32
:1031B000D5E936011318A7EB0004B4FBF2F402FBC7
:1031C00004F441F10006E418D5F8A830A3EB00039D
:1031D000B3FBF2F303FB02F246F10006121841F1D1
:1031E0000001C5E93621A3E70040420F30B504468F
:1031F00089B090F80031B3BBC0F8041191F83032B7
:1032000003F0FF0523B14FF427712120FDF786FB62
:10321000FF2380F8003180F8015180F8085109F04F
:10322000F8FE2146C4F8E000104806F0A7FE20286A
:1032300084F8980013D000952B46012202A920465D
:10324000FFF718FE10B940F2B121DEE794F89800BC
:1032500002A907F009F818B940F2B221D5E707250D
:10326000284609B030BD0C25FAE700BFA9D10000FF
:103270001FB5044690F800310BB10AF016F8084A61
:1032800007CA01AB83E80700194620460AF03FF859
:1032900020B140F221212120FDF740FB04B010BDF8
:1032A000704C020070B5044688B00E465ABB90F8C8
:1032B000003103F0FF0553BB80F80151FF2380F874
:1032C000003109F0A6FE2146C4F8E000124806F0DD
:1032D00055FE202884F898001BD000962B4601222A
:1032E00002A92046FFF7C6FD20B94FF44271212004
:1032F000FDF714FB94F8980002A906F0B5FF18B981
:1033000040F20931F3E71125284608B070BD0C25BD
:10331000FAE70725F8E700BFA9D1000001292DE948
:10332000F341044604D902294CD040F62D0120E097
:10333000D0E92A6703F0CEFF40F2A765D4F80481F4
:10334000751947F100062D1846F10006D8F81870D7
:1033500000F0D0FA04F1D80383420DD0CDE9005635
:103360003A46D8E982010AF0D2F8874205D240F203
:10337000A2312120FDF7D2FA0020274B1A68D4F899
:103380000431824297BF40F2E2419A69B0FBF1F208
:1033900001FB120294BF821A80189A6241F66A02F7
:1033A0009A859A6A41F66901821A8A4202D940F2E4
:1033B000BD71DEE7401946F10006C3E9820602B09E
:1033C000BDE8F081012380F80831D0F804310025F0
:1033D00040F2011283F83052A3F86820FF2283F8EC
:1033E0006A20D0F804012946303001F0F7FFD4F804
:1033F000040110B940F2D971BBE70AF060F894F803
:103400000231C4F80451002BD9D004F017F906F0AA
:103410000FFC84F80251D2E7F40A0020F7B51E4EE3
:10342000012333700027CDE900776846FDF79AFE47
:103430000546C8B10023337003B0F0BD90F83102E7
:1034400007F06CFE94F8310284F8305206F0C2FDA9
:1034500010B940F2E1111BE0202384F8313204F569
:10346000027000F007FADEE7009B002BDDD093F836
:103470003022002AD9D018884FF6FF739842D9D04D
:103480002946FDF735FE04460028D7D14FF4F971DF
:103490003520FDF743FA00BFF80A002038B50C4B81
:1034A00090F86820054690F8690033F8124004F05F
:1034B000BBFB04F29D7404444FF47A712846B4FBBC
:1034C000F1F1BDE8384001F583710BF083BB00BF1B
:1034D0007C4C02002DE9F8430C46054691461F46F8
:1034E00009F0ADFF94F89E8006461FB101212046E9
:1034F00003F0FAFA94F83032032B40D8DFE803F0F7
:10350000023C363CB9F1000F04D140F23B2135209A
:10351000FDF704FA012384F830322046FFF7BEFF9E
:103520004FF00009D4E9823219EB030342F10002A3
:10353000C4E98232C5E9043200232B702E8194F84D
:103540009E600B3EF3B21A2B9FBF3A4EDE40F6430D
:1035500006F0010688BF0126204686F001060BF022
:1035600043FF00B176B10023AB7211E00323D4F81E
:10357000389284F83032D5E7D4F81890D2E740F288
:103580007321C4E794F83032012BDAB22BD1AA723E
:103590000023EB7204F130000BF0C1FA6860002FD9
:1035A00046D0A8F10D08B8F1010F41D94946284687
:1035B0000AF0FDFF1FFA80F820460BF015FF0746C2
:1035C000D6B9804518D3AE72D4E9823109FB00F236
:1035D0009B1841F10001C5E90431B9F1000F04D194
:1035E00040F2B52193E70223BEE7494628460AF098
:1035F000DEFF38441FFA80F84146204603F074FA93
:10360000D5E90423C4E98223236F8BB1B4F8CE102B
:10361000B4F898305B1A1BB2002B09DDB4F87420A3
:103620001344013BB3FBF2F313FB0213A4F8CE30B7
:10363000BDE8F883050000042DE9F843044620B9ED
:103640004FF493713520FDF769F9082967D8DFE851
:1036500001F005474F4F4B66555C630090F83032E0
:1036600013B94FF49771EDE703F07EF9002859D0B4
:1036700009F0E5FEDFF8B080A56998F8013000F2A6
:103680006D191FFA89F91BB9236B9D4228BF1D468E
:1036900004F130000BF043FA064609F0D0FE00F1C9
:1036A0006607022007F0C0FB16FA87F7ED1B25EA34
:1036B000E575854228BF05460221284607F004FC2F
:1036C00000B92F444A46394620460BF073FAC8F831
:1036D0000400A06907F04EFB20BB4FF49071B1E7E6
:1036E000BDE8F8430BF044BEBDE8F84304F062B90E
:1036F000BDE8F8430122002109F0B0BE012004F02A
:1037000053FDBDE8F84309F091BA90F83032042B2C
:1037100008D04FF4AA7195E740F2591192E740F2B0
:103720005D118FE7BDE8F883F80A0020024B002204
:10373000C3E90022FFF772BEF80A0020014B58705F
:10374000704700BFF80A002038B5044620B94FF48E
:10375000E2713520FDF7E2F890F8303203F0FF0512
:1037600013B140F2C511F4E790F83132202B02D0AA
:103770004FF4E371EDE70146044806F0FFFB84F8DF
:103780003102202814BF28460D2038BD39360000EC
:1037900008B503F09FFD054B5A6882422ABF18788E
:1037A000002080F0010000F0010008BDF80A0020B0
:1037B00010B50446042936D8DFE801F0031A161EB6
:1037C00031001B4B1B7803F0FF026BB9012109F09C
:1037D00045FEB4F898300133A4F8983003F02EFF7A
:1037E000BDE8104006F024BA042384F83032F5E72F
:1037F000032384F8303210BD8369C0F83832D0F822
:1038000054328362B0F850328385D0F858328361E5
:10381000D0F85C320362FFF741FE0223E9E7BDE81E
:103820001040FFF73BBE40F23E313520FDF776F801
:10383000F80A0020014B00221A607047000B00209C
:1038400008B5044B186810B9FFF7F4FF08BD0C2049
:10385000FCE700BF000B0020C3693BB983692BB9AB
:10386000034B1B681B1A5842584170470120704790
:10387000000B002010B5D0E906436BB1D0E902215E
:103880001144DA689C610A44DA6082693AB1D36112
:103890000023C0E9063310BD034A1460F5E7002B8E
:1038A000F6D0DA60F4E700BF000B002008B5C16174
:1038B00091B90F4A1368836103B1D8611060C2697E
:1038C0000023C3609AB1D3687BB181688B420AD26E
:1038D0002D213720FDF722F88B6988618361002B49
:1038E000EDD0D861EBE75B1AC3600023D36008BD5D
:1038F000000B0020014B1868704700BF000B002030
:10390000034B1B68002003B9704718469B69FAE710
:10391000000B00200B4B00221B6830B504464FF013
:10392000FF35104623B911B9002808BF104630BD35
:10393000DA68A24203D3AA423CBF154618461A468B
:103940009B69EFE7000B002038B5036A1BB1826862
:103950009C68A24203D2CD213720FCF7DFFFC1696A
:103960008569D9619D6141B18B61996941B1CB6133
:10397000C1680A44121BDA6038BD02490B60F4E7E3
:10398000D960F9E7000B0020F8B5264B044608463D
:1039900000211D680B466DB95BB1984225D3B0FB81
:1039A000F3F1013C03FB01F51C44B4FBF3F48C423E
:1039B0000ED9F8BD2E690BB19E4207D226B94FF43D
:1039C00096713720FCF7AAFFA98A3346AD69E2E772
:1039D000B5FBF3F603FB165626B9B5FBF2F602FB70
:1039E0001656DEB10139ED1AE1E7451E1D44B3FB61
:1039F000F4F4B5FBF0F5AC42DBD3B3FBF5F605FB15
:103A000016374FB9B6FBF2F702FB176727B9B6FBBB
:103A1000F1F701FB17671FB10135ECE72846C8E74E
:103A20003046C6E7000B002010B5044609F08AFDB9
:103A300008B9002010BDE04309F084FD0028F8D04B
:103A4000E31683EAA4635A1E1A42F2D020460BF012
:103A500004F91828EDD8A3B2B3EB144F04D184EACB
:103A6000142313F0FF1FE4D0034B63405A1E1A4285
:103A700014BF01200020DDE7D6BE898EF0B5070C0B
:103A8000A7F5AA42144B543A012A03EA90231FD9FE
:103A900027F4004042F6AA22801A18BF0120002213
:103AA000162116461F2487EA060562EA0505013538
:103AB00010D0DD03ADB245EA5606E503ADB20139DB
:103AC00045EA52024FEA53034FEA5404EBD1F0BDEA
:103AD0000020E4E70020FAE7E0FF3F00304BF0B5BC
:103AE0001A88B0F85C70B0F85A605D88974228BFB9
:103AF0001746964228BF16461B2E85B00C462ED080
:103B0000B5F5A47F2DD040F648039D4201A928BFFA
:103B10001D4609F00CFEBDF80A309F4228BF1F4623
:103B2000BDF80C30E780AB4228BF2B462381BDF89F
:103B300006309E4228BF1E46BDF8083066809D4272
:103B400028BF1D46A580FF232370E3881B3B9BB243
:103B5000E02B08D94FF4B7613920FCF7DFFE1B2FAB
:103B6000CED105B0F0BD63881B3B9BB2E02B02D9E0
:103B700040F2BA51F0E72389A3F5A4739BB2B3F5E1
:103B8000E06F02D940F2BC51E6E7A388A3F5A47325
:103B90009BB2B3F5E06FE4D940F2BE51DCE700BF61
:103BA000040B002008B50AF02CFC00F0A1FF00F087
:103BB0000DFD0AF029FF01F001FA02F001F801F011
:103BC00025FA094909484FF4A4734B80084B1B227E
:103BD0009A800A8000221860DA821A835A745A8204
:103BE00007230B718A7108BD040B002003021B0020
:103BF0003C0F0020044B41F64C52C3E902221B2229
:103C00001A74FFF7CFBF00BF3C0F0020014B93F9A0
:103C10000C007047040B0020034B5A8802801B786D
:103C200083700020704700BF3C0F002013B58378DD
:103C30001A2B044609D8042B05D9012202FA03F3F2
:103C4000114A134205D1122017E0292B01D03B2B3A
:103C5000F9D12088B0F5706FF5D269460AF02EFCD4
:103C600068B9019B93F8382102F0FF004AB9A278A5
:103C700083F83921FF2283F8382102B010BD0220D9
:103C8000FBE70C20F9E700BF200038040188A1F110
:103C90001B039BB2E02B0CD84288A2F5A4739BB205
:103CA00044F24810834204D8034B002019805A8004
:103CB00070471220704700BF040B0020034B1A8886
:103CC0005B88028043800020704700BF040B002007
:103CD00038B504784278857804F0010352EA03018C
:103CE00004F0020401D1112038BDBCB9002DFAD076
:103CF000002B08BF144601E000242546204609F0A9
:103D0000AAFC0028EFD0284609F0A5FC0028EAD03C
:103D1000054B00209C74DD749882E5E7002BEBD105
:103D200014461D46EAE700BF3C0F002013B500888B
:103D300069460AF0C3FB18B10224204602B010BD48
:103D4000019809F035FC0028F6D0019890F84A3126
:103D50000BB13A24F1E790F8EC3003F0FF04002BAC
:103D6000F7D190F8E3309B0703D1012380F84A3163
:103D7000E3E703490222E4300AF05AFEDDE700BF20
:103D80004DF20000F0B50378032B87B0044602D94A
:103D9000122007B0F0BD4378032BF9D8457E0DB152
:103DA0001120F6E78378012BF2D100F005FCC30760
:103DB000F6D5A27812F0010014D0E178A36820694A
:103DC00001294AD84549A0F253768E4247D86FF46C
:103DD0001C77A3F6C41639448E4240D8834234BFC0
:103DE00012200020960713D5E678A3682169012EDA
:103DF00037D83B4EB14236D8A3F6C417A6F6C41640
:103E0000B74230D88B4234BF122300231843C0B2CC
:103E1000510712D5E178A2682369012925D83149D3
:103E2000A3F6C4168E4222D8A2F6C4168E421ED81D
:103E30009A4238BF12252843C0B20028A9D1237E58
:103E4000013B062BA4D80121FDF752F9054680B9A4
:103E500040F669513920FCF761FD1220C2E730209D
:103E6000C0E71223D2E73023D0E71225E3E730255D
:103E7000E1E7A03009F045FA70BB6278A3788DF8CD
:103E8000072022788DF80620227E8DF80820DA0798
:103E90008DF80C308DF8043013D55B072269A168CA
:103EA00003D54B089A4228BF1A46E378012B18BF66
:103EB000B3FA83F3CDE9041214BF5B0902238DF832
:103EC000053003A9284609F022FA00287FF461AFE3
:103ED00001A808F0C0FF5CE70C205AE73CF670022E
:103EE0008FFD7002CBF3700200B589B043798DF875
:103EF000043083798DF8053001238DF8063003787E
:103F00008DF80730B0F8013040F271214B43039334
:103F1000B0F803204A430C49059209798DF81C102A
:103F200000218DF81D100949A2F6C4128A4209D851
:103F3000A3F6C4138B4205D801A8FFF723FF09B0ED
:103F40005DF804FB3020FAE7040B00203C369C00AF
:103F50002DE9F047437A990744BF43F001034372C8
:103F6000447A620788B0054604D11226304608B06C
:103F7000BDE8F08714F0F80FF7D1022CF5D000F06F
:103F80001BFB34EA000340F0C08195F84860002E26
:103F900040F0BB81012CE8D1AB69564AA3F25371C2
:103FA000914200F2B481EA689342DED8B5F842301B
:103FB0000193AB8F00932A8EEB8E698DA88C09F04C
:103FC00089FB002800F0A3812B78012BCDD813B9F1
:103FD000AB78012BC9D86B78032BC6D895F849303C
:103FE000013B062BC1D801210846FDF781F80746A1
:103FF00018B90121FDF77CF8074607F1A00009F088
:1040000080F9002840F07D81384608F08CFE08B128
:104010003A26ABE7384608F080FE80460028F7D104
:1040200001460DF10A00FCF7EDFF0446002800F000
:104030006A81314BBDF80AA01868039041461B798C
:10404000DFF8B8808DF81030204600F027FF2C4BA9
:10405000C4F840322046D8F80830A4F800A040F850
:10406000303F09F019FA814600F0A0FAA4F83A901E
:10407000DFF8909098F8103084F8383010F0200F66
:10408000D9F800301DBFB8F80420B8F80210A4F821
:104090005A101B2208BFA4F85A20A4F85C2063B170
:1040A000002305A88DF8143006940BF0CCF9D9F84C
:1040B000003094F96C105046984798F801300193FD
:1040C00098F800300093B8F80430B8F8022004F1F2
:1040D000140104F11000FDF77DF8236923B941F2C2
:1040E0005D013920FCF71AFC63696BB941F25E018E
:1040F000F7E700BF3CF670025A7D02003C0F00203B
:104100000A0B0020D400002009F02CFAE06101F035
:10411000E9F920F07F40606295F84A3005EB4303EF
:1041200040F2E249598D988C4A4609FB01F109FB9E
:1041300000F0FFF729FCA4F81C92A061C4F8180253
:1041400095F84A30D8F80C1005EB430320461A8E38
:10415000DB8E2284638409F09CF903A904F1A60094
:104160000AF0B3FAFF2384F844326E4B1B6923B183
:10417000012204F59D712046984798F8129098F80E
:1041800013A0B8F81480B9F1000F40F0C68000F019
:1041900013FA8146BAF1000F40F0BB8000F00CFA30
:1041A0008246B9F1000F40F08280092601F09AF9A9
:1041B0000C23B0FBF3F202FB1300C0B2431DDBB2D1
:1041C000082B9ABF0D3084F8B20084F8B230012178
:1041D000204600F063FE002E5CD12046FFF7B4FAC3
:1041E0000646002856D16978384605F1030808F0DC
:1041F000CEFDAA7829784346384608F09EFD00286F
:104200007DD03846FEF794FB2978AA784346384695
:1042100008F0CAFD032387F85030FC64AB7813F034
:10422000FD0F424614BF01210021384608F0D7FD9A
:104230002B7853B995F80290CDE9056609F0FD0990
:1042400005A8FCF78FFF00283FD00121384608F071
:10425000E1FD0646F0B96B7A8DF81400DB0706D550
:10426000EB680693AB69079301238DF8143005A919
:10427000384609F04CF895F849100646384608F0DB
:1042800059FD3EB921463846FEF7B0FF06460028E4
:104290003FF46CAE208800F025FA20880021FCF75E
:1042A0003DFF00283FF462AE41F2F12119E70028FA
:1042B0003FF47BAF05A920468DF814908DF815A02A
:1042C000ADF816800AF0CAF970E7059EB442B7D07F
:1042D000B9F1000018BF0120B278F31C41460AF082
:1042E00091F80028ACD0727A607A06F10A0304F1E2
:1042F0000A010AF087F80028A2D00B26CAE7122686
:10430000C8E70C2632E60D2630E611262EE63026CA
:104310002CE600283FF449AFCCE7BAF1000FC9D131
:104320003CE700BF040B002010B54379032B94B089
:1043300056D823F002038DF80630D0F80630CDF8B9
:1043400007304389ADF80B3002798DF80420012342
:104350008DF80D30027B03888DF8052040F2712224
:104360005343049341884A430792847B417B41EA4B
:104370000421ADF82810047CC17B41EA0421ADF88A
:104380002E10847C417C41EA0421ADF83410047D78
:10439000C17C41EA0421ADF83A10417D847D41EAB7
:1043A0000421ADF84010C17D007E41EA0021ADF846
:1043B000461000218DF84C100B488DF84E100B491B
:1043C00000798DF84D00A2F6C4128A420AD8A3F6ED
:1043D000C4138B4206D801A8FFF7BAFD14B010BD74
:1043E0001220FBE73020F9E7040B00203C369C004C
:1043F0000278034672B1427862B142881A2A09D91A
:1044000082881A2A06D9044A006810609B88938023
:1044100000207047122070473C0F0020024B0268BA
:104420009A600020704700BF3C0F0020024B0268DA
:10443000DA600020704700BF3C0F00200378A3F132
:104440000A02112A9DBF024A0020137412207047ED
:104450003C0F00200378FF2B15D14378FF2B12D19E
:104460008378FF2B0FD1C378FF2B0CD1037923F076
:10447000E0021F2A07D113F0E00F04D0034A5B09C2
:104480001371002070471220704700BF040B0020FA
:1044900008B5052000F07CF80AF0A2FF014B024AA3
:1044A0001A6108BD040B0020DD3A000008B5FFF7D3
:1044B000C1F9FFF73BF9FFF7A9FBBDE8084001464A
:1044C0000148FEF771BA00BF180B002008B5FEF7CF
:1044D00015FAFFF7EBFF09F092FF074800F584712A
:1044E000FDF7F2F8002008F028FB0AF077FFBDE89E
:1044F000084000F0B7BE00BF180B002010B5094CF3
:10450000094904F5037009F0B1FD04F50470074989
:1045100009F0ACFD04F505700549BDE8104009F04F
:10452000A5BD00BF180B0020E0000020E80000201F
:10453000D800002038B5094C0D4600F08BFED4F8A9
:104540000C02C4F8045109F089FDFFF753FB00F099
:10455000E1FF012384F8183238BD00BF180B00209A
:10456000014B93F818027047180B002010B5074C48
:10457000D4F8100209F072FDD4F8140209F06EFDAF
:10458000FFF710FB002384F8183210BD180B002031
:10459000C2080549012300F0070003FA00F08B5C14
:1045A00018438854704700BF18000020014BD3E91E
:1045B0000001704718000020034B1868C0F300206A
:1045C000400040F0010070471800002008B503F0DB
:1045D0004BFE084A002332F82310814205D302EB38
:1045E00083039B78044A137008BD01330C2BF2D16E
:1045F0000023F7E7824C0200310D0020024B1878AF
:1046000000F00700704700BF310D002010B544686E
:104610002388A4F8983194F8683084F89711012B16
:1046200006D0022B04D040F281210620FCF776F957
:1046300084F89A3194F86930012B01D0022BF2D121
:1046400084F89B310449022204F5C7700AF0F0F99E
:10465000002384F8443110BDE5E0000040680849BB
:104660000388A0F88A3190F8603080F88C3190F897
:10467000613080F88D3100F281100AF0D3B900BFAB
:10468000FBE0000030B505680446084651B115B19D
:104690002179994215D1FF21617123712260002394
:1046A000637130BD002DFCD0FF236371237921603D
:1046B0000122054902FA03F3C1F80835607110467A
:1046C000EFE70020EDE700BF00F00140044B0022BF
:1046D00083F822204FF6FF729A84DA841A85704795
:1046E000320D0020054B9A8C824201BF002283F8D4
:1046F00022204FF6FF729A84704700BF320D0020CF
:10470000014BD884704700BF320D0020094A034690
:10471000908C4FF6FF71884206D192F82210012941
:1047200005D01A60012070470020186070470020F3
:10473000704700BF320D0020064B93F82220012A5B
:104740001FBF0120DA8C83F822009A8408BF002062
:10475000704700BF320D0020014B1885704700BF25
:10476000320D0020064B0246198D988C884205D1E7
:1047700093F8220018B113600120704700207047A1
:10478000320D0020094B998C1A8D914201D00020E6
:1047900070474FF6FF729A8493F82220002AF6D0D1
:1047A000002283F822200120704700BF320D002034
:1047B000054B998C1A8D914203BF93F82200B0FAF1
:1047C00080F0400901207047320D002050B90A4A9C
:1047D0001346012003F8010B0868C2F801008A881B
:1047E0009A807047012805D1034B0A689A608A882D
:1047F000D8719A81704700BF5C0D002048B90A4B00
:10480000187880B1D3F80120B3F805300A608B80A6
:104810007047012806D1044BD87920B19A680A6004
:104820009B89F4E7002070475C0D002020B9054B00
:10483000187800F00100704701280ABF014B0020E2
:10484000D879F6E75C0D0020F7B500228B888DF84B
:104850000600ADF8043008680C4B8DF80720019D68
:104860001C78014603F5AC73D0B2844201D808200D
:1048700009E0D3E90076AE4208BF8F4203F1080396
:1048800002F10102F0D103B0F0BD00BF700D0020B5
:1048900030B5094B01465C78002203F58173D0B234
:1048A000844201D8082005E013F8015B8D4202F133
:1048B0000102F4D130BD00BF700D0020F8B52E4CC0
:1048C0006278013AD2B22318824293F802516270A0
:1048D00032D0130101019E1C8F1C2644274406F18F
:1048E000100C56F804EB47F804EB6645F9D1823317
:1048F00082312344214403F1100653F8047B41F82C
:10490000047BB342F9D1A618211896F8023181F838
:1049100002314FF48577062313FB027213FB0070FC
:10492000A318A258225004EB000C9B88ACF804306A
:1049300096F83A3181F83A312846FFF7A9FF08285E
:1049400018D12378013BDBB29D42237012D02B3368
:1049500004EBC30393E8030005F12B0204EBC2024E
:1049600082E803002078FFF793FF08281CBF241873
:1049700084F80251F8BD00BF700D0020F0B5254D40
:1049800095F8984189B0224605F29911684607F0DA
:10499000DBF82146684609F053FD0446B8B300EB46
:1049A0004001C9B202A8FCF73BF9601E95F8A1616D
:1049B000C0B2012495F8982105E0731CB3FBF2F115
:1049C00002FB1133DEB206F120030DEB030111F8F7
:1049D000203C002BF1D100EB400220326A4406EB70
:1049E00046032B4412F8187C83F8A27112F8177C46
:1049F00012F8162C83F8A37183F8A42101F8204C37
:104A00000138AB19C0B2FF2883F89941D2D109B05F
:104A1000F0BD00BF700D002070B5064688B00C4692
:104A2000002A4FD02A4A92F8A131D01890F8991153
:104A300021B94FF480712820FBF770FF03EB43018D
:104A40001144013391F8A251E57091F8A35191F806
:104A5000A41161710021257180F8991192F89811C3
:104A6000B3FBF1F001FB103382F8A13192F8C231AF
:104A700023B9184902F5DD7009F0D7FF657905F013
:104A80003F0545F0400565710D220021684607F09D
:104A9000D3F8E3788DF80F3023798DF80E3004AA1F
:104AA0000423694630468DF80D5006F0E3FD9DF86D
:104AB0001F3023709DF81E3063709DF81D30A37069
:104AC00008B070BD03216018FCF7AAF8D6E700BF54
:104AD000700D00207D490000044B5A78824286BF49
:104AE0001B1893F842010020704700BF700D002092
:104AF000064B00224FF461711A8083F8C32183F8BA
:104B0000C421A3F8C61183F8C2217047700D00209C
:104B1000014B83F8C4017047700D002010B5144696
:104B2000FFF792FE082803D1012000F0010010BD1C
:104B3000FFF7AEFE064B5A788242F5D904B12070D9
:104B4000184490F83A31012BEED090F84A01ECE786
:104B5000700D00202DE9F047824689461746984699
:104B6000FFF772FE08280546064603D0FFF790FEC1
:104B7000082863D1334C6378072B61D8082D18D1EE
:104B80002678731C072E237003D96B212820FBF78E
:104B9000C5FE06F12B03DAB2D9F8000044F8320062
:104BA00004EBC20104EBC303B9F804208A8083F844
:104BB00006A065786B1C290163704B1C07F110027D
:104BC000234412F8010D03F8010FBA42F9D18131E3
:104BD00008F11003214413F8012D01F8012F984525
:104BE000F9D11021404609F08BFC2544102185F8AD
:104BF0004201384609F084FC85F80261667885F840
:104C00004A01002385F83A3131460F4809F018FC73
:104C1000314605460D4809F013FC012D03D8002844
:104C200018BF0135EDB284F898510025284684F864
:104C3000A151FFF7A3FE2846BDE8F0871220FBE74D
:104C40000720F9E7700D0020B20E0020BA0E0020F8
:104C500010B5064B5878013840B2002800DA10BD74
:104C6000C4B22046FFF72AFE601EF5E7700D002053
:104C7000014B83F8C3017047700D0020014B93F87E
:104C8000C3017047700D0020431E9BB24AF2B71259
:104C900093429DBF024BA3F8C6010120002070473C
:104CA000700D0020014BB3F8C6017047700D002055
:104CB00030B50A4B5C7884420ED9184490F8020152
:104CC0002B3003EBC004A5790D7053F83000106051
:104CD000A3889380012030BD0020FCE7700D0020E8
:104CE0000246074810B590F8C34124B1417821B17C
:104CF000023001F079FF204610BD0C46FBE700BFF3
:104D0000700D0020F8B5184C064648B3617804F5DC
:104D1000A17009F095FB94F898510746294604F2D2
:104D2000991009F08DFB2D1AEDB2AF421AD800256B
:104D300006270FE0E21892F8422152B907FB03411F
:104D400004EB0313324601F5857103F18200FFF78E
:104D500063FE01356278EBB29A42EBD80120F8BDD0
:104D60000546E5E70020FAE7700D0020F0B51B4E80
:104D70007378834289B007460D462CD9331893F8CF
:104D8000424144BB0D222146684606F055FFEB78B0
:104D90008DF80F302B798DF80E3006EB07106B79FC
:104DA0008DF80D3004AA04236946823006F062FCB7
:104DB0002A789DF81F309A420AD16A789DF81E30F1
:104DC0009A4205D1AC789DF81D00231A5C425C41E3
:104DD000204609B0F0BD0020FBE700BF700D0020A9
:104DE000074B5A78824209D91A1892F842212AB9F7
:104DF000062202FB003000F58570704700207047E6
:104E0000700D0020F8B50E460746062130461546BF
:104E100009F076FB044640B10A482946427800F57D
:104E20009D7006F009FF2046F8BD3146384609F06E
:104E300023FB08281FBF034BC018012480F83A51F8
:104E4000F1E700BF700D002030B50024A0F85240FB
:104E5000B0F8564042F210754C43B4FBF2F4A0F89F
:104E60005640541E05FB0343B3FBF2F3A0F8543045
:104E7000094BB3FBF2F30133A0F85A30B0F84C30D1
:104E800005FB0344436CB4FBF2F459438464B1FB67
:104E9000F2F2426430BD00BF005A620270B50446AF
:104EA0000D4659BB4FF4247206F0C6FE012384F868
:104EB000A630492384F8F330042384F8F4306FF0EB
:104EC0003B0384F8F5306F2384F8F6306FF03F032E
:104ED00084F8F7302B2384F8F230FE2384F82E3147
:104EE0007F2384F89D30144BC4F88830202384F845
:104EF000F85084F8F95084F8313270BD012912D18C
:104F000082690E4B1344B3FBF2F3C0F8C83040F68D
:104F1000B833A0F8CC30438C114604F18000BDE8D2
:104F20007040FFF791BF0229E7D1B0F85E32D0F8A8
:104F300058228169F1E700BF00E0FCFF7FC3C9018F
:104F4000034B80F86C101B680BB100881847704742
:104F5000F0000020074B93F900301844142804DCBB
:104F600010F17F0F03DB40B27047142070476FF0E1
:104F70007E007047380F002007B57F230DF1070032
:104F80008DF8073002F0E2FC9DF9073068B10A4A5B
:104F90005078404243FA80F0142808DC10F17F0F6B
:104FA00007DB40B203B05DF804FB1846FAE71420B3
:104FB000F8E76FF07E00F5E7380F0020024B002283
:104FC0001A705A70704700BF380F0020054B1B78CD
:104FD00033B9054B1A681B790260037101207047D1
:104FE000002070473A0F002020000020054BFF22D0
:104FF0001A70054A016811600179117100221A7056
:10500000704700BF3A0F00202000002007B5064B74
:10501000186800901B798DF804306846FFF7E6FFAA
:1050200003B05DF804FB00BF5A7D020003464078E0
:1050300048B1DB783A2B05D8034AD35C1B1A584297
:105040005841704701207047B24C02003A2908B518
:10505000C17003D8064B5B5C437008BDFF2904D0C8
:105060004FF489612A20FBF759FC0123F4E700BFC4
:10507000B24C02002DE9F04385B0894602A91546DD
:10508000984609F01BFA0446002835D1039E2DB935
:10509000012086F8A50005B0BDE8F08337692946F0
:1050A000384607F04DFB01460028F4D0144B5B88CE
:1050B000AB4223D301AA384607F097FC019B1C8022
:1050C0009C7096F8A5300198002B0CBF4946022130
:1050D00009F0F7FB019841462A46033006F034FDFB
:1050E0002946384607F061FB18B97B212B20FBF7D6
:1050F00015FC86F8A540CEE70120CCE72046CAE79C
:105100003C0F0020024B987DC04300F00100704727
:105110003C0F0020034B987D80F00200C0F340005C
:10512000704700BF3C0F002010B5094C142200212D
:10513000204606F081FD1222002104F1140006F041
:105140007BFD01232373231DC4E9003310BD00BF81
:10515000580F00207FB505460C4619B9F1211020E3
:10516000FBF7DCFB03888B8000234B7246693046DB
:1051700007F02DFC014608B9FA21F0E701AA3046F4
:1051800007F033FCE08008B9FF21E8E7FB2802D9EB
:1051900040F20111E3E7019809F09BFB012801D0DF
:1051A000022805D12072206828B94FF48C71D6E707
:1051B00040F21111D3E70199E288033106F0C4FCF3
:1051C000304607F01AFC10B940F21D11C7E7002164
:1051D000304607F04EFB10B94FF49171BFE70B4B0F
:1051E000DA7D82B11A8B2888013A02A91A8309F064
:1051F00065F910B140F22B11B1E7039AB2F8B6305D
:105200000133A2F8B63004B070BD00BF3C0F0020DF
:1052100010B520B940F21B211020FBF77FFB416045
:105220000272EFF3108472B6094B1A1D02605968BE
:1052300019B1097A012908BF1A601A68106018604C
:1052400004B962B6BDE8104093F8260006F03EBBF4
:10525000580F0020024B83F82600FFF765BF00BF00
:10526000580F0020014B024A1A607047F4000020DA
:1052700055510000F7B54F4D4F4F06466B681B7AEE
:105280000C2B06D1FB7D23B13B8B13B9002003B05F
:10529000F0BD2B699BB11B7A8BB12C69002CF5D02A
:1052A000237ADBB205222272023B0A2B73D8DFE895
:1052B00003F01732477272507272727265006C6836
:1052C000237A012BE2D0EFF3108372B66A6812687A
:1052D0006A6003B962B6237A002BDAD02C61DFE76B
:1052E000636823B940F2A1111020FBF717FB204699
:1052F000314698470420EFF3108372B6227A052ACC
:10530000D1B201D000294FD1002222722A61002B94
:1053100046D162B644E0636813B94FF4D571E3E750
:105320003146204698470346C3F30723012BADF8C7
:105330000400C0B232D0022BDDD100232B612FE05C
:10534000636813B94FF4DA71CEE72046984700201E
:10535000D1E763680BB9C621C6E70D223270198800
:10536000A6F80310012200241869B2707271B4719A
:10537000214607F07EFA2C61042088E7606810B9A6
:1053800040F2DF11B0E70D4B31461B689847002310
:105390002B6102207BE74FF4F471A5E7032323720E
:1053A00000283FF46BAF72E7002B7FF467AF62B663
:1053B00064E700BF580F00203C0F0020F4000020DD
:1053C0000448037F23B904490222143009F01EBBAC
:1053D000704700BF580F0020FFE900001B234FF06B
:1053E0001B128384038482618382C260038539B97E
:1053F0004FF4A473034AC3844384C261C38202612D
:10540000704700BF4801480103460846B3F85420DE
:10541000B3F848109142F0B528BF1146B3F84C409C
:10542000B3F85620B3F84450DF8FB3F84260D98701
:10543000A24228BF2246B3F84640A3F84220944235
:1054400038BF14468D4238BF0D468F42A3F84450F2
:10545000A3F846402DD1B61A18BF0126B3F84A501A
:10546000B3F85040B3F852E0B3F83CC0B3F8407022
:10547000A54228BF2546B3F84E409D87744528BFF6
:105480007446AC45A3F8404002D1A74200D196B182
:105490001B88A0F80930A0F80B50A0F80D40A0F828
:1054A0000F10A0F81120BDE8F0400349022209F0D6
:1054B000BFBA0126D2E7F0BD43EA00000B8BA2F889
:1054C0000B304B8BA2F80D308B8BA2F80F30CB8BAF
:1054D000A2F809000249A2F81130104609F0A2BA58
:1054E00083EA0000094AD2E90203434083EAB0118B
:1054F00081EA43214FEAF343D360054B916058435F
:105500004FEAF06000EB8000704700BF800F002082
:10551000BB79379E38B50A4C04F1080508212846A6
:10552000FBF77EFBD4E902231343F7D0FFF7DAFF42
:105530002060FFF7D7FF236860600343F6D038BDD3
:10554000800F0020174B184A9A60184ADA62184AEE
:105550001A61184A5A61184A9A61184A1A63184A15
:105560005A62184ADA64184A9A64184A9A63184BBD
:10557000184A9A60184A1A62184A5A60184A1A60F9
:10558000184A9A62184ADA62184ADA60184A9A6126
:10559000184A1A63184A9A64184ADA64184A5A620E
:1055A000704700BFF80000209FED000085F000006C
:1055B0004FF0000013F000003D580000F1590000CA
:1055C00001590000C7F10000EFF10000A5580000EC
:1055D000E4010020CBED00006BF10000E9ED0000DC
:1055E00039EE0000E3F00000A1F0000013F100002C
:1055F000C5F000006BF2000027F200001DF2000071
:1056000091F10000054B064A1A65064A5A65064B99
:10561000064A1A65064A5A65704700BFF80000201E
:1056200001EF000087EE0000E401002061EE0000C1
:10563000B7EF0000054B064A9A65064ADA65064B45
:10564000064A9A65064A1A66704700BFF8000020AD
:105650003FE2000015E30000E40100207FE10000CC
:1056600077E3000070B50C46252A00F2CC80DFE815
:1056700002F01337404BCACA4A6264694A4A6DCA8B
:10568000CACACA784A4A929298CAA0CACACACACA98
:10569000CACACACACAB3BCC3416840F2E240D1F820
:1056A0005832B1F85022B2FBF0F22271D1F85422F4
:1056B000B3FBF0F3B2FBF0F2E3716271C3F30723C3
:1056C000C2F30722A2712372B1F85C3263721B0A23
:1056D000A3722046B1F85E12BDE8704009F0FDB833
:1056E0004368D3F8401220460131BDE8704009F00C
:1056F000F8B802784368012A02D193F8303101E00A
:1057000093F83931237170BD4568204605F5217144
:1057100009F0EEF805F52371204609F0F3F805F5D8
:105720001971204609F0F1F805F590712046BDE8A1
:10573000704009F0F1B84368DFE7BDE87040084603
:1057400000F028B9BDE8704000F036B90D230B71A8
:1057500059234B7100238B71FB23CB7111230B72E7
:10576000D1E70378456873B995F830315BB195F8A6
:105770002D11204609F01BF995F82C112046BDE8A3
:10578000704009F018B995F82B11204609F00FF96F
:1057900095F82A11F2E741682046BDE8704009F00B
:1057A000B3BA436893F846210A7193F847314B71B5
:1057B000A9E7456895F84B0208F020FD0146204610
:1057C00009F0EFF895F84A0208F018FD0146204666
:1057D000BDE8704009F0E3B80D4B1B68002B92D078
:1057E00002462320BDE870401847094B1B68002B78
:1057F00089D002462420F5E7054B1B68002B82D098
:1058000002462520EEE740F2D6315120FBF786F81C
:10581000D00200203A289ABF024B53F82000002003
:10582000704700BFF80000203A289ABF024B53F897
:1058300020000020704700BFE401002038B5436815
:1058400093F89E201B2A044625D193F8E2101D8868
:10585000002283F8E12083F8DC2083F88E2203F510
:10586000FD7071B10D4983F8E22083F80322A3F89B
:105870000452022209F0CAF86368002083F89E00EF
:1058800038BD012283F8031283F806220449A3F8E5
:1058900004520222EEE70220F2E700BFFFEF000011
:1058A000E7EF000038B5446800230D4694F89F20C8
:1058B000194604F1800008F02FFEE8B169680F4B2B
:1058C000AA680B40C4F8F23022F41E52C3F30763F7
:1058D00043F0080322F01002120484F8F53001238B
:1058E000120C002084F8E0300423C4F8F620A4F859
:1058F000DE0084F89F3038BD0120FCE72F4904F713
:1059000070B54468037894F89E2006460D4604F16D
:105910008000072108F000FE98B369681B4BAA6855
:105920000B40C4F8F23022F41E52C3F3076343F075
:10593000080322F0100284F8F5301204002384F8E2
:105940009E30120CC4F8F620726884F8DC3082F8BD
:105950004B3194F8A42102F0FF06A2B92388A4F8E1
:10596000A63184F8A5616B68C4F8A831AB68084912
:10597000C4F8AC31022204F5CE7009F047F8304685
:1059800070BD0126FBE71E46F9E700BF2F4904F76B
:1059900049F1000010B50446FEF708FE21F41E513F
:1059A000044B21F0100109040340090C6360A1605D
:1059B00010BD00BF2F4904F737B50C464568FEF708
:1059C000F5FD0A4B95F8F22021F41E5121F010014B
:1059D000034009040093090C13408DF80030019135
:1059E0006B4603CB6060A16003B030BD2F4904F764
:1059F00070B54468037894F89E2004F180060D4643
:105A00003046082108F088FD034690B394F8E3304F
:105A10009A071DD4284608F088FF84F8ED00B5F8F1
:105A20000530A4F8EE30B5F80730A4F8F03094F85B
:105A3000E33043F00202DB0784F8E32002D494F859
:105A40004A312BB11849022204F1E40008F0F0FFBA
:105A500094F8E35015F001051CD194F89F202B46D3
:105A60002946304608F058FD68B94F214020FAF722
:105A700055FF014694F89F20304608F04DFD002860
:105A8000C4D1012070BD012384F89F3084F8E03038
:105A9000A4F8DE5094F89E300020012B04BF84F857
:105AA0009E0084F8DC00EDE74DF20000044B9B689B
:105AB0005843C3F580534B4303EB2030704700BF7E
:105AC000900F002070B54568044601F0FDFB85F895
:105AD0008F00FFF751FA7F28014685F89D000ED010
