:10000000C05A0020651701004D0A02005117010077
:1000100051170100511701005117010000000000A5
:10002000000000000000000000000000191901009D
:100030005117010000000000E518010051170100F0
:10004000D11A010075390200D11A0100D11A01003C
:10005000D11A0100D11A0100D11A0100D11A0100F0
:100060002B390200D11A0100D11A01005F390200B8
:10007000D11A0100D11A0100D11A0100D11A0100D0
:10008000D11A0100D11A0100D11A0100D11A0100C0
:10009000D11A0100D11A0100D11A0100D11A0100B0
:1000A000D11A0100D11A0100D11A0100D11A0100A0
:1000B000D11A0100D11A0100D11A0100D11A010090
:1000C000D11A0100D11A0100D11A0100D11A010080
:0C00D000D11A0100D11A0100D11A010060
:1000E0002DE9F00791E8F807B2E802105B1854EB2D
:1000F0000C04B2E802104D4156EB0C06B2E80210B7
:100100004F4158EB0C08B2E8021059EB01095AEBC9
:100110000C0A80E8F80780410130BDE8F00770471D
:100120002DE9F00791E8F807B2E802105B1A74EBCA
:100130000C04B2E802108D4176EB0C06B2E8021016
:100140008F4178EB0C08B2E8021079EB01097AEBE9
:100150000C0A80E8F80780414042BDE8F00770478C
:100160002DE9F007524290E87800B1E88007174087
:10017000DB1918EA020854EB080419EA020955EBE6
:1001800009051AEA020A56EB0A0678C090E87800D8
:10019000B1E8800717407B4118EA020854EB0804D5
:1001A00019EA020955EB09051AEA020A56EB0A0692
:1001B00078C080410130BDE8F00770472DE9F007B5
:1001C000524290E87800B1E880071740DB1B18EA3C
:1001D000020874EB080419EA020975EB09051AEA2A
:1001E000020A76EB0A0678C090E87800B1E880074A
:1001F0001740BB4118EA020874EB080419EA020927
:1002000075EB09051AEA020A76EB0A0678C0804106
:100210004042BDE8F00770472DE9F00152424FF02F
:10022000040890E8300091E8C000A31B1340E41AD2
:10023000F618EB1B1340ED1AFF1830C0C0C1B8F11F
:100240000108EED1BDE8F001704700BF00B592E8AB
:10025000DC072DE9DC07B1E8805702B4A7FB0251A7
:100260000A95A8FB020BE7FB6310E9FB62B00B9158
:10027000A8FB0351EAFB6201E7FB64B5E7FB6605F7
:10028000E8FB6615CDF830B0A9FB03B6EAFB6316B0
:10029000ECFB6356E8FB640BE9FB641BEAFB645B65
:1002A000ECFB646B0D90ACFB0230059CEEFB6250E6
:1002B000E9FB6460EAFB64B0E7FB6431E8FB64518E
:1002C000069CE8FB6461E9FB64B1EAFB64010E9300
:1002D000A7FB0432079CE7FB6462E8FB64B2E9FB1E
:1002E0006402EAFB6412049CE9FB6453EAFB646366
:1002F000089CE7FB64B3E8FB6403E9FB6413EAFBD7
:1003000064230F955DF8049B99E80006DDF80080F2
:10031000A9FB0854EAFB68B4DDF81080ECFB680424
:10032000EEFB6814E9FB6824EAFB6834DDF804801E
:10033000EEFB6865E9FB68B5EAFB6805DDF814804B
:10034000ECFB6815EEFB6825E9FB6835EAFB6845C0
:100350000F96DDF80880AEFB0876E9FB6806EAFB3D
:100360006816DDF81880ECFB6826EEFB6836E9FBC2
:100370006846EAFB6856DDF80C80ECFB68B7EEFBDC
:100380006807E9FB6817EAFB6827DDF81C80ECFBCF
:100390006837EEFB6847E9FB6857EAFB686708B017
:1003A00000BD00BF2DE9F14F87B0FFF74FFFDDF82B
:1003B0001C8008F1200888E8FF00FFBC87E87F0860
:1003C000BDE8F08F00B591E89857A3FB0352019563
:1003D000A3FB0401E3FB6420E3FB67100292A3FB91
:1003E0000752E3FB6802E4FB6415E3FB6805E3FBEB
:1003F00069250391A4FB07B6E3FB6926E3FB6A5674
:10040000E4FB670BE4FB682BE3FB6A5BE3FB6C6BD1
:100410000490A4FB0810E4FB6950E3FB6C60E3FB71
:100420006EB0E7FB6721E4FB6951E4FB6A61E3FB23
:100430006EB1E4FB6E010592A7FB0832E4FB6A6231
:10044000E4FB6CB2E4FB6E02E7FB6E12E7FB685361
:10045000E7FB6963E4FB6CB3E7FB6C03E7FB6E133C
:10046000E8FB6E230695A7FB0954E7FB6AB4E7FB9C
:100470006C04E8FB6C14E8FB6E24E9FB6E34E8FBCB
:100480006865E7FB6AB5E8FB6A05E8FB6C15E9FB04
:100490006C25E9FB6E35EAFB6E450796A8FB0976ED
:1004A000E8FB6A06E9FB6A16E9FB6C26EAFB6C3698
:1004B000EAFB6E46ECFB6E56E8FB69B7E9FB6907A1
:1004C000E9FB6A17EAFB6A27EAFB6C37ECFB6C472F
:1004D000ECFB6E57EEFB6E6700BD00BF2DE9F14FE0
:1004E00087B0FFF76FFFDDF81C8008F1200888E86F
:1004F000FF00FFBC87E87F08BDE8F08F30B44FF005
:10050000000310F8014B11F8015B013A84EA05047D
:1005100043EA0403F5D1A3F101034FEAD37030BCE1
:10052000704700BF4FF0000310F8012B013943EA78
:100530000203F9D1A3F101034FEAD370704700BF62
:1005400030B411F8014B12F8015B6C4000F8014B1C
:10055000013BF6D130BC70472DE9F00791E8F80770
:10056000B2E802105B1854EB0C04B2E802104D41E3
:1005700056EB0C06B2E802104F4158EB0C08B2E8FB
:10058000021059EB01095AEB0C0A8941B3F1FF3310
:1005900074F1FF3475F1FF3576F1000677F100074D
:1005A00078F1000879F101097AF1FF3A51F100017F
:1005B0005B184C414D4156F1000657F1000758F1C8
:1005C000000859EBD1795AEB010A80E8F807BDE839
:1005D000F00770472DE9F00791E8F807B2E802103C
:1005E0005B1A74EB0C04B2E802108D4176EB0C063A
:1005F000B2E802108F4178EB0C08B2E8021079EBF8
:1006000001097AEB0C0A89415B184C414D4156F1C6
:10061000000657F1000758F1000859EBD1795AEB61
:10062000010A80E8F807BDE8F007704718EB0408F6
:1006300059EB05095AEB060A5BEB070B5FF0000C60
:100640004CF1000C18EB050859EB06095AEB070AA8
:100650005BEB070B50EB0C005FF0000C51EB0C0157
:1006600052EB0C0263414CF1000CB8EB070879F136
:1006700000097AF1000A7BEB040BA841B141A241C9
:10068000B3416CF1000CBBEB050BB041B941AA4181
:10069000BB416CF1000C4CF001068CF0020718EB2A
:1006A000060859EB6C095AEB6C0A7BEB6C0B70EB90
:1006B0006C0471EB6C0572EB670653EB6C076CEB2B
:1006C0006C0C18EB0C0059EB0C015AEB0C025BF1B3
:1006D000000354F1000455F1000556EBDC7657EBAE
:1006E0000C0770472DE9F14F87B0FFF7AFFDDDF83C
:1006F0001080DDF81490DDF818A0FFF797FFBDE833
:10070000000FFFF793FF03B05DF8048B88E8FF004C
:10071000BDE8F08F2DE9F14F87B0FFF753FEDDF80C
:100720001080DDF81490DDF818A0FFF77FFFBDE81A
:10073000000FFFF77BFF03B05DF8048B88E8FF0034
:10074000BDE8F08F074B1B78002B4FF00003836050
:100750000360054B436014BF02220122FF23C271D4
:1007600003727047380D002010010800064B074A3D
:100770009B7802604FF40E728280C37108220023BE
:1007800082710372704700BF380D002065EA0000D7
:10079000F8B5C41D002824F00704054614BF204600
:1007A000002000F025FB071E02DA6FF00B00F8BDF9
:1007B0000DB9FC42F9D42D4E317AF079B37A727AC0
:1007C000033103300BF0AFFC0028EEDBB178F37897
:1007D00027440337002D194427F0030700FB01F1DC
:1007E00014BF3846002000F08FFC07440DB9002FDD
:1007F000DBDB01203C4600F0F1FA90B1F17A81B1E7
:10080000FC1D002D24F0070414BF204600202523E2
:10081000282202F0D9F90028C7DB04440DB9002CC6
:10082000C3DBB37BABB1012000F0D8FA88B1F37A17
:100830007BB10734002D24F0070414BF20460020AC
:10084000B17B05F0FDF90028AFDB04440DB9002CA5
:10085000ABDBB36A1BB135B1B4620020A7E7002D52
:10086000FBD12046A3E72834FBD59EE7380D0020B6
:100870001FB572B6184BDD6AE5B9BFF34F8F174944
:10088000174BCA6802F4E0621343CB60BFF34F8F8B
:1008900000BFFDE7B2FBF6F2DCB20133002AF9D16A
:1008A00004F110036B4403F80C2C0A2234B901A89C
:1008B000A847E2E7024600230A26EDE7631E04AEDE
:1008C000DCB256FA83F3B0FBF2F602FB16003030CE
:1008D00003F80C0C3046E9E7380D002000ED00E08D
:1008E0000400FA0507B50C4B9A7A8DF801205A7A64
:1008F0008DF8002068461A7ADB79ADF80420ADF84F
:10090000023003F05DFD18B1D9210320FFF7B0FFDD
:1009100003B05DF804FB00BF380D002038B5044675
:1009200070B30AF025FA10B94FF0FF3038BD0EF061
:10093000B4F9B0F5FA7FF7D8144D1548EC620024ED
:1009400000F0C6F926222146A81C85F830402C70FC
:10095000AC620AF0EDFD0123AB701B23EB7140F29A
:100960001B332B8140F202336B810823AB73EFF30F
:10097000108572B600F038FC2DB962B62846D5E76E
:100980006FF01500D2E72046D0E700BF380D0020F9
:10099000E508000038B51446002844D1234D95F8E9
:1009A0003030032B3CD071B112B96FF0150038BD57
:1009B0000139062937D8DFE801F004361536253627
:1009C0002E001378AB700020FFF7E2FE0028B7BFBF
:1009D0000123022385F830306FF00B00A8BF85F8A3
:1009E0003030E4E79378002BDFD0D378002BDCD0D5
:1009F00013781A2BD9D953781A2BD6D91368C5F87E
:100A00000730E0E7012000F0E9F9237808B1012B75
:100A1000CBD9EB72D7E71388FF2BC6D8AB73D2E7DD
:100A20004FF0FF30C3E76FF02C00C0E7380D002017
:100A3000F8B50D46064630B329B311F0070422D1AC
:100A4000124F97F83030012B02D16FF00B00F8BD38
:100A5000032B02D14FF0FF30F9E700F08FF80028A8
:100A6000F8D02846FFF794FE0028EEDB0EF053F88E
:100A70003046B96A03F046FDFFF734FF032387F8D9
:100A800030302046E3E76FF01500E0E7380D002036
:100A900010B5074C94F83030032B03D103F04EFD12
:100AA00004F068FC0BF095FB002084F8300010BDCA
:100AB000380D002050B1074B03F1140253F8041B0A
:100AC00040F8041B9342F9D1002070476FF01500E5
:100AD000704700BF517E020010B5094B93F83040BB
:100AE0005CB903F0F3FC0749012000F06FF92046E0
:100AF000054900F06BF9204610BD4FF0FF30FBE7D1
:100B0000380D0020450700006D07000010B5054BAB
:100B100093F830401CB903F0A3FC204610BD4FF001
:100B2000FF30FBE7380D002010B5054B93F830403F
:100B30001CB90CF067FE204610BD4FF0FF30FBE7FC
:100B4000380D002010B5054B93F830401CB90CF05F
:100B50005CFE204610BD4FF0FF30FBE7380D002053
:100B6000024B02681A600020704700BF6C0D002025
:100B7000014B1B68184700BF6C0D0020024B186822
:100B8000003818BF012070476C0D00202DE9F84394
:100B90001C4E044600F104081A48C6F8008004F010
:100BA00001FC0228054606D1164920460AF065FDDB
:100BB0002846BDE8F88304281CD1314620460AF0B7
:100BC000C1FDB0F5817F03D372210820FFF750FEED
:100BD0000028E1D0277894F80290384600F028F8F1
:100BE0000028D9D03E2FE3D1484600F061F8002814
:100BF000DED1D1E70828DBD1024920460AF06CFD9E
:100C0000D6E700BF700D0020074B4FF0FF3141F6D3
:100C1000FF72C3E9001205490022C1E900221F2129
:100C2000C3E90212704700BFC0040020740E002008
:100C30003F280CD801380B4BC0F3421200F01F00C4
:100C400053F8223023FA00F000F001007047FF282B
:100C500006D04038C0F34212034B00F01F00EFE70C
:100C600001207047C0040020740E00200146074B8D
:100C7000006849681A4603C240F48C221A6041F0A9
:100C8000107242F4FF625A60704700BFC004002037
:100C90000246024B0068516803C37047740E00207F
:100CA0000246024B0068516803C37047C804002025
:100CB0000138064BC0F3421203EB820300F01F0021
:100CC0009B6823FA00F000F001007047C004002088
:100CD000014B1860704700BF7C0E002010B5FFF775
:100CE00093FF0CF05CFA034B1B68044603B1984772
:100CF000204610BD7C0E00200B880288F0B5C3F39F
:100D00000E049EB204F11403C57CC35A02352A4472
:100D10002B4497B213FA82F3013B4288B3FBF7F3FB
:100D200013FB07439BB29A42044A93BF22EA06038D
:100D3000324013439BB20B80F0BD00BF0080FFFF29
:100D40004A1E062A08B50346084604D84FF4D17156
:100D50001520FFF78DFD094A914202D940F2A311F7
:100D6000F6E711B903B1196008BD2BB11B68002269
:100D7000C3E901211A1D1A600430F5E7FAFFFF7F6D
:100D800010B5114B00EB41041A786389B3FBF2F301
:100D900003FB0223013A1A44B2F5706F027928BFAF
:100DA00000231A448378B2FBF3F0194403FB1020AC
:100DB000091AB1FBF3F003FB101313446FEA43432A
:100DC0006FEA5343638110BD800E0020024B03EB9A
:100DD00080035960704700BF800E0020034B03EB77
:100DE00080035868003818BF01207047800E00202B
:100DF0002DE9F04F10F0070A85B0054604D040F207
:100E000061111720FFF734FD554F07F10C06B1466D
:100E10000446B0464FF0010B57F8043B8DF80BA089
:100E20003BB101A898479DF80A30082B01D9E82169
:100E3000E7E79DF80B1081BB05B13160B94506F1BC
:100E40000406E9D12DB3DFF81CE100238EF8003051
:100E50001E46022258F82200013A60B190F804A020
:100E60008178BAF1FF0F66D14FF000078E4207710B
:100E70003CBFCEB20123511CECD10BB18EF8006007
:100E8000022640F6FF6A58F82670002F65D1013E11
:100E9000F9D2601B05B0BDE8F08F9DF80AC0BCF127
:100EA000020FE64601F1050238BF4FF0020E0EF1C7
:100EB000FF3004EB42040444CEF100002040BDF8B2
:100EC00008406444013CCCF1000C04EA0C04B4F585
:100ED000803F4FEA420301D3F82192E775B1C31A6C
:100EE000336099701C8083F803B09DF80C201A7150
:100EF000019A1A814FEA124CA3F806C004FB0104C0
:100F00009CE758F82C90B9F1000F06D099F804B07E
:100F1000D34504BF99F802904F440CF1FF3CBCF15B
:100F2000000FEEDA3944FF29A0D90BB18EF800602A
:100F300040F2271165E794460027F0E707EB4103ED
:100F40003846A3F80AA0FFF71BFF09F10109BB7897
:100F50005FFA89F18B42F1D899E74FF00009F6E783
:100F6000840E0020800E0020F8B54FF6FF7303803A
:100F7000184B03EB810305461869B8B186780379ED
:100F8000B3FBF6F206FB1233DBB219460A1D00EB87
:100F90004202B2F902705488002F09DB0131B1FB23
:100FA000F6F206FB1211C9B28B42EFD10020F8BD58
:100FB000FF29FBD0C4F30E03C4782B8024B94FF46F
:100FC000D5711720FFF754FC5380BDE8F8400BF0B3
:100FD00089B800BF800E00201D4B03EB810370B564
:100FE0001C69054644B3030404D54FF4DC71172093
:100FF000FFF73EFC014620460BF056F8FF2801465D
:1010000004D02046BDE870400BF06CB8A078B5FB6A
:10101000F0F300FB1353DBB219460A1D04EB420642
:10102000B6F90260002E09DB0131B1FBF0F200FBE2
:101030001211C9B28B42F0D1002070BDFF29FBD044
:101040008B4204EB42021CBF0023E3705580D8E7BB
:10105000800E0020094B03EB810310B51C6901468B
:1010600020460BF021F8FF28014604D02046BDE8B9
:1010700010400BF037B8002010BD00BF800E0020DC
:10108000F8B5104B03EB810307461C690146204667
:101090000BF00AF8FF28054611D0E688238953EAA9
:1010A000064606D0014620460BF01CF8014638469D
:1010B000B04720462946FFF763FE0020F8BD052013
:1010C000FCE700BF800E002038B50E4B827903EBA1
:1010D00082030446186908B9052038BD8278E17991
:1010E0009142F9D24B1CE37100EB41035D89B3F9E6
:1010F0000A30002BF3DBA5800AF0F4FF206000200B
:10110000EBE700BF800E002070B5044610F003002E
:101110000E4603D04F211820FFF7AAFBFFF710FE61
:10112000054624B1034831460460FFF709FE28460E
:1011300070BD00BF9C0E00202DE9F14FDFF870B0AC
:101140009DF828A09DF82C901E46DBF8003007463D
:101150000D4690461BB961211820FFF789FB5246C6
:10116000092140460AF026FE4A4684B2092130464B
:101170000AF020FE14FA80F1DBF800000AF069FFA3
:10118000386018B9286001B0BDE8F08F04442C60C5
:1011900038685346414609220AF0C5FD28684B4687
:1011A0000922314601B0BDE8F04F0AF0BCBD00BFD6
:1011B0009C0E002070B50E4604460AF00EFE054651
:1011C00030460AF00AFE044B2A1821461868BDE88A
:1011D00070400AF062BF00BF9C0E0020014B1868EF
:1011E0000AF02BBF9C0E0020134B012200214FF070
:1011F000FF309A60C3F80012C3F80803C3F8001563
:10120000C3F804259A60C3F80803C3F80015C3F8AF
:1012100004250A490A4A03F580334FF40040C3F815
:101220000825C1F88000BFF34F8FBFF36F8FC1F85F
:101230008001C3F80825704700F0004000E100E09D
:101240000000F63F0A461E2302F8033B0448C36829
:10125000C1F803300369536043699360704700BF6E
:10126000A00E0020024B5A8C02435A845B6A184736
:10127000A00E0020014B00215B6A1847A00E002041
:1012800010B5154C06F00CFA05F0A8FD208DFFF7FF
:10129000F1FF237E63B12246104952F80C3BE36014
:1012A0006368536004F11900A36893600CF043FF76
:1012B0000B4B228D93E8030004F04CFD236B188840
:1012C00004F072FCA36B94F8341094F8350098473E
:1012D000002384F83C3010BDA00E00204512000011
:1012E000CC0E0020034B93F83C300BB1FFF7C8BF86
:1012F000704700BFA00E002008B5094B93F83C20B2
:10130000022A04D040F253212720FFF7B1FADA7AFB
:1013100042F00102DA72BDE80840FFF7B1BF00BF3A
:10132000A00E002010B50E4C226C137803F00303BE
:10133000032B04D1D378022B01D1002010BD606CA7
:101340000AF0DEFD0028F9D1236C1B7803F00303BB
:10135000032BF2D003F014FA80F00100C0B2EDE7E5
:10136000A00E002037B55E4C256B95F89420002325
:101370008DF8053094F848300AB10433DBB295F8A3
:10138000681028B9FF2B03D195F869308B4202D041
:10139000FF2006F025F895F88A30032B00F297809D
:1013A000DFE803F002337A8D94F84930ADF8063067
:1013B0004C48A5F8583003F0BDF950B1216C4FF4FA
:1013C0008070FFF74FFF012385F8853084F84A309D
:1013D0001DE0606C0DF105020DF106010AF025FD1E
:1013E000206490B195F8D1307BB99DF805302BB9C8
:1013F00003808370206C01210CF0D2FDBDF8061033
:10140000206C0CF04BFE0123E0E7374B236495F88A
:101410008B30216CDB0003F008020B7803F0F30340
:10142000134395F88C20920002F00402134323F03A
:1014300010030B70FFF776FF0028206C027814BFB2
:10144000102300231343037095F89330002B41D0F1
:101450004378002B3ED0206F06F0C2F9012384F8B8
:101460009030D5E93C23216C206FC4E9222305F09C
:101470006BFC95F86910012006F00EFA226C1188B9
:10148000A4F8A1109178194A012384F8A030917032
:1014900084F83C3003B030BDB5F85830606CADF81E
:1014A00006300DF105020DF106010AF0BEFC2064C4
:1014B0000028A8D140F2F3212720FFF7D9F90948E5
:1014C00003F038F900289ED140F2FD21F4E740F204
:1014D0000B31F1E706F084F905F080FCC9E700BFA5
:1014E000A00E0020E00E0020EB0E0020410F002097
:1014F0002DE9F7434C4C94F83C30256B012B064604
:101500000F4604D040F2A4412720FFF7B1F995F827
:1015100084302BB1002185F884100420FFF7A2FE4F
:10152000216C0B7803F00303032B05D195F88A3067
:1015300013B90220FFF796FE226C137803F0030321
:10154000032B03D05378002B5DD1012385F88A301B
:1015500095F89430B3B1D5E93E01236B94F84890E7
:10156000C4E922014FF0000893F8690084F89080E4
:101570000AF031FE2D49CDF8008003464A4601208D
:1015800005F09CFB002E40D1002F3ED0D4F8A430B3
:1015900030469847002838D094F83430ABBB256BE0
:1015A000D4F8AC30C4F8A83095F8943094F84800DA
:1015B00083BBFF2895F8691003D195F868308B42FA
:1015C00001D005F00DFF95F8943033B3206F06F08D
:1015D00007F9002384F89030D5E93E23216FD4F831
:1015E000A800C4E9222305F0AFFB002006F00AF9A9
:1015F00095F86810002006F04FF9022384F83C307B
:1016000003B0BDE8F0830223A0E703B0BDE8F043D8
:10161000FFF736BE0430C0B2CBE7D4F8A80006F01E
:10162000DFF805F0DBFBE0E7A00E0020180F00203C
:1016300010B5064B93F83C2002F0FF0422B91C764B
:1016400004F080FB204610BD0C24FBE7A00E002018
:101650000B4B0C4A70B506460D461A60FFF7E8FFC3
:1016600018B1E1212720FFF703F9074C012104F10C
:101670004B000CF095FCC4F8AC60256770BD00BF52
:1016800010050020881C0000A00E0020024B012243
:1016900083F8B020704700BFA00E0020F0B5754D54
:1016A00085B002AC84E8030095F83C100A9F01F075
:1016B000FF0611B90AB103B127B940F26F11272013
:1016C000FFF7D6F894E8030005F12C0C8CE8030032
:1016D0002C6B6A62C5F8A430AF6385F8B06085F8FA
:1016E000346085F8B16085F8356085F8A06085F8CC
:1016F0004A606E842E8505F09FFE05F06FFB94F91D
:101700006C0005F035FF606A06F05CF8E06905F0F2
:1017100035FF94F8A40005F057FF94F86820564B65
:1017200033F8121030464FF47A7301F5FA71B1FBB9
:10173000F3F16E3105F0A0FF504B186806F048F841
:1017400023696B646369C5F8B43094F8773073B972
:10175000226F62B1B4F8BE10B4F888308B4206D163
:10176000B4F874100B44A4F8BE3001231360444E47
:1017700004F5807304F5887718685968324603C207
:101780000833BB421646F7D1D4F810313D4AC5F8AC
:101790009130D4F8143153602B6B93F88E2093F86A
:1017A0006860253A012A03D993F88F20252A5CD155
:1017B00093F8F2312BB1012E03D0012B0CBF01267F
:1017C000022604F13007314638460CF046FD31461A
:1017D0000CF091FAA38F94F86910834228BF034656
:1017E000384685F849300CF021FD94F8691094F8DA
:1017F0009470B4F84460042908BF03210CF07BFA0C
:101800000FB9043080B2B04228BF304694F893300C
:10181000C0B285F8B80085F848008BB1012385F87F
:101820009030D4E93C2394F86800C5E922230AF0FB
:10183000D2FC0346002012490090FB2205F03EFA3C
:101840000120FFF78FFD00232B606B60AB60B4F8C5
:1018500088306B8023882B8094F8A4302B71A36F81
:101860000BB101221A6005B0F0BD032E08BF04269B
:10187000A7E700BFA00E0020284C020010050020A2
:10188000180F0020310F002008B5094B93F83C20B9
:101890001AB9BDE80840FFF7F3BC93F83C30012BC0
:1018A00004D040F231212720FEF7E2FF08BD00BF3F
:1018B000A00E0020014B1876704700BFA00E00203C
:1018C0002DE9F3411F4D82072C6B06460F4624D5A8
:1018D000D5F8BC3023B940F295412720FEF7C8FF68
:1018E000B5F8C020D5F8A8101846033291F8018049
:1018F00009F0A6FD0DF1020201A9C5F8A800D5F86E
:10190000B4000AF090FB01980AF077FB01223860DE
:101910004146D5F8B4000AF03DFBF3070ED5D4E9F3
:101920003E32013342F10002C4E93E3294F88C3079
:10193000012B0CBF0023012384F88C3002B0BDE8DA
:10194000F08100BFA00E00202DE9FF47AF4C00231F
:10195000CDE9023394F83C30D4F830A0022B07468E
:10196000884604D04FF4A3612720FEF781FF238D22
:10197000580606D44020FFF77DFC238D43F040033A
:1019800023859AF89430002F00F03081BBB105F028
:1019900057FA05F03BFA90B9D4F8A8305A7872B1EA
:1019A0001B789AF88C20C3F3C0039A4207D1012315
:1019B00084F83530FFF764FC04B0BDE8F087D4F854
:1019C000A8305978A4F8C01009B3D4F8B4000AF0CC
:1019D000B8FAC4F8BC00238D9AF88B2043F4007346
:1019E0002385D4F8A8301B78C3F380039A4200F013
:1019F000BC80256B95F88A30A3B3022B11D1606CA3
:101A000002A90AF035FA28B940F20E41ACE7C4F851
:101A1000BC10E0E7D5E93C32013342F10002C5E9F0
:101A20003C3295F88530002685F88A6093B185F8B8
:101A3000856002F08FFE10B940F2254194E73146EF
:101A40000820FFF70FFCD5E93C32013342F10002D8
:101A5000C5E93C3295F88B30012B0CBF00230123E4
:101A600085F88B30238D43F4006323854FF0000904
:101A7000D4F8A8109AF88C200D78C5F3C0039A42C8
:101A800040F0A68005F00305032D266B6FD0002DD6
:101A900078D196F88C30013B18BF012386F88C3042
:101AA000D4F8A8305B7833B1D6E93E32013342F145
:101AB0000002C6E93E329AF893308BB1012384F8D4
:101AC0009030DAE93C239AF86800C4E922230AF04E
:101AD00082FB034600204E490090FB2205F0EEF801
:101AE000B8F1000F00F0988005F0F6FE4FF0010805
:101AF0001DB103A90220FFF7E3FEB9F1000F04D0E6
:101B0000B4F809300133A4F80930002F00F0B68092
:101B1000B4F805300133A4F80530002384F8B1305F
:101B20003C4804F02FF8029830B10AF066FA216BB5
:101B30000022027203F086FC039B33B1216B00226A
:101B40001A720C22039803F04BFCB8F1000F7FF4DB
:101B500031AF238D1B063FF52FAF8020FFF78AFBA7
:101B6000238D43F08003238526E7B94680E7238D44
:101B7000012043F4805386F8840023850025FFF775
:101B800071FB86E74D78002D83D0238D96F8945015
:101B900043F48053238505F0D9FB042894F8B8302A
:101BA00006D1002D14BF1B221F22934228BF1346CB
:101BB000D4F8A82052789A420CD8D4F8BC50002D02
:101BC0003FF479AF94F8B03073B12020FFF752FBA7
:101BD000002570E794F83430012043F0100384F8B6
:101BE000343006F0F9FCF3E73D4652E70BB105F05F
:101BF0005DF994F8B130013384F8B130238D0025BC
:101C000043F480632385A94655E700BFA00E00205A
:101C1000180F0020CC0E002094F8B130012B3FF6B5
:101C200063AFD4F8A4300120984700283FF45CAF9C
:101C300094F83430002B7FF457AF94F8A130D906D4
:101C4000C3F3001202D5FFF76DFB0246D4F8AC30A7
:101C5000D4F8BC101B78C3F3001329B9B4F8C01032
:101C600013B1B1FA81F35B09608C00287FF43CAFBB
:101C700013433FF439AFFFF775FB39E7B4F807308A
:101C80000133A4F807304BE7F912000049190000AE
:101C9000F1140000E5120000024B1B68002283F8DB
:101CA00078207047640F002008B503F047F9014B16
:101CB000187008BDD0040020024B1868743000F082
:101CC000E5BF00BF640F002038B50F4CFFF7F4FFED
:101CD000256800F099FF23686867586F20B940F2C3
:101CE000EF413220FEF7C4FD00F0BCFF10B940F216
:101CF000F141F6E705F074FD002005F083FD23684F
:101D0000042283F8782038BD640F002070B52E4C73
:101D100023680646586F00F0A5FF054620B941F23A
:101D2000B5313220FEF7A4FD236893F8543013B97F
:101D300041F2BB31F5E77EB10CF00CF938B1236804
:101D400093F87820022A0FD841F23B31E9E7284680
:101D50000CF018F90028F2D1236893F87820022AB1
:101D600019D841F29B31DCE793F87820082A02D990
:101D700041F23C31D5E793F87830626803F1804353
:101D80001269033B284652F8233098470C2814D98F
:101D900041F2CE31C5E793F87820082A02D941F202
:101DA0009C31BEE793F87830626803F18043526952
:101DB000033B52F823309847E8E76368DB68BDE8E7
:101DC000704053F820301847640F002008B5074BC7
:101DD00093F900207F2A04D14FF462713220FEF77C
:101DE00047FD02707F221A7008BD00BFD00400209A
:101DF00030B504788FB004F00F04224604A90AF02D
:101E0000CAFCFFF751FF042C34D11C4D059B2C68F4
:101E1000197894F87D2091422CD1597894F87E203D
:101E2000914227D1997894F87F20914222D1D97894
:101E300094F8802091421DD1197994F88120914223
:101E400018D15A7994F882309A4213D19DF8212002
:101E500094F883309A420DD10DF10F00FFF7B6FFD1
:101E60009DF90F3000932A7A2B7B04A904F17400AA
:101E70000AF082FC03200FB030BD00BF640F0020C9
:101E800010B50F4A136893F87810022904D841F26C
:101E9000BB413220FEF7ECFC93F87810082902D9F8
:101EA00041F2BC41F5E793F87830526803F1804382
:101EB0009268033BBDE8104052F82330184700BF3A
:101EC000640F002010B5054C637A2BB105F0CAFCF5
:101ED00004F09CFE0023637210BD00BF640F00205D
:101EE00010B5074CFFF7EEFF2368012283F8782036
:101EF000FFF7E2FE2068BDE810400AF0C4BE00BF54
:101F0000640F002010B500B919B9BDE81040FFF703
:101F1000E7BF0F4A136893F87810082904D841F2F4
:101F20008B413220FEF7A4FC93F878100C2902D9DB
:101F300041F28C41F5E793F87830526803F1804321
:101F40005268093BBDE8104052F82330184700BFE3
:101F5000640F002038B5314CFFF7AEFE256800F065
:101F600053FE23686867586F20B940F24C41322015
:101F7000FEF77EFC00F076FE054610B940F24E41B9
:101F8000F5E7236893F890306BB123681A6D93F8E6
:101F90009110C3F8042193F854200A4383F8542085
:101FA000002283F89020206890F878305BB190F898
:101FB0007830012B07D000210AF052FD18B9BDE896
:101FC0003840FFF78DBF2368154A93F87C30D05C0A
:101FD00005F0FAFA0121252005F002FA284605F05D
:101FE000FFFB0121084605F0F5FAE81C02F060FE4F
:101FF000607220B104F0F0FD402005F027FC22685B
:1020000000230821E372A3722373A2F87A3003231A
:1020100082F8791082F87830217238BD640F002080
:102020002E4C020070B5394C236893F87830012BA0
:10203000054604D940F6E2013220FEF719FC05F00E
:10204000FBF905F00FFC04F0E1FD314805F0C0FBA1
:10205000304805F0B7FB304805F090FA6B7A43B191
:10206000206860300BF090FD23689B6E0BB101225D
:102070001A602B7A032B02D140F61311DCE720689B
:10208000B3B9032190F87C2090F84A500E460132F3
:10209000B2FBF6F303EB4303D31ADAB245FA03F3C8
:1020A000DB0703D4013911F0FF01F0D180F87C2067
:1020B00090F9580005F05CFAFFF74CFF256895F899
:1020C000483013B3D5E922126FF000439A4208BF9B
:1020D000B1F1FF3F19D00CF000FED5E92223904268
:1020E00071EB030311D3012002F0F4FD68B1256800
:1020F00002F0C0FD04460CF0F0FD084BA4FB0334D5
:102100001B1844EB0104C5E9223470BD640F0020A4
:102110008005002055555500D6BE898E40420F00DF
:102120002DE9F041564D064628692F6800230370BB
:102130004370884605F054FB032E3CD12A6913787E
:1021400023F00F0343F0030313700C23537007F1C4
:102150007D0128690BF0E0FE97F8831028690BF0E9
:10216000EFFE2B6893F8482093F8417003F1420486
:102170007AB193F85420520771D593F84C20002A75
:102180006DD093F84D0002F013FE00281CBF0446EA
:102190000127286921460BF0B1FE286939460BF06A
:1021A000C2FE384BD3F80431002B5BD040F22F61D4
:1021B0003220FEF75DFB052EC9D12C6928682378F3
:1021C00023F02F0343EA4811222241F00501217038
:1021D0006270036DDB69C4F80F30036D5A6AE274F4
:1021E000110A120C217562759A69998D40F2E24CC0
:1021F000B1FBFCF1A175996AB2FBFCF2B1FBFCF1F9
:102200006276E175C2F30722C1F307212176A27637
:102210001A8CE276120A22775A8C6277120AA27717
:10222000D3F89720C4F81F2093F89B3084F823300C
:10223000036D93F8A23094F8242003F01F0322F0DA
:102240001F02134384F8243002F0C0F994F82430BC
:1022500003F01F0343EA401384F8243077E793F830
:10226000790090E7052E08D12B6821681A6DC2F815
:102270000A10A188D1811B6D5F72BDE8F08100BF9B
:10228000640F00200010004010B50B4C002103200B
:10229000FFF746FF206803210AF0E2FB18B9BDE80A
:1022A0001040FFF71DBE0121084605F0F5FA23682E
:1022B000092283F8782010BD640F002038B5174D2F
:1022C0002B68586F00F0CEFC044620B940F25B51F9
:1022D0003220FEF7CDFA28680A2380F878300021F2
:1022E00000F0B8FE2B681A6D237892F8964004EA45
:1022F000531404F0010421460520FFF711FF28685C
:1023000004210AF0ADFB18B9BDE83840FFF7E8BD7D
:102310002B681B6D83F8964038BD00BF640F00200A
:102320002DE9F04F7D4C95B00546FFF7BDFC2368C5
:1023300093F8543013F0060F04D0012296210020A8
:102340000CF006FC2E7806F00F06284632460AA945
:102350000AF021FA0B9D75B39DF83920012A58D156
:102360006B7903F0C003A3F1400CDCF1000343EBF5
:102370000C03627A5AB153B125680BF053FC236801
:1023800085F8790093F8793023720123A3722368CA
:1023900093F8790008283ED10B999DF839000CF08C
:1023A000AFFA22680B99054679329DF8390002F0A0
:1023B0009DFB002841D0216891F8543013F00302AE
:1023C00007D0062E91F84B2046D8002A0CBF2A468B
:1023D000012202F0010213F0040381F87A2007D0F1
:1023E000062E91F84C3039D8002B0CBF2B46012318
:1023F00003F0010381F87B300B9B0BB39DF8392070
:1024000081F883201A68C1F87D209B88A1F881306B
:1024100016E00023ADE708AA0DF11F0102F030FC21
:1024200020B940F6A2313220FEF722FA9DF81F00B3
:1024300008A90CF065FA0546BDE72368A3F87A0001
:10244000062E00F2D880DFE816F06B00F7000B00D4
:10245000D600D600D60029000022BAE70023C7E73D
:1024600005F01EF9256895F854309F0701D1032522
:1024700033E095F87A30002BF9D008A8FFF7A6FCD6
:102480009DF920300293237A0193FF2300930222C7
:1024900005F142030AA905F174003BE0256895F8AF
:1024A0007A30002B00F0A78095F854309E071AD59B
:1024B00008A8FFF78BFC9DF920300293237A019343
:1024C000FF23009305F1740005F1420306220AA9D7
:1024D0000AF042F9002323730925FFF7F3FC28468D
:1024E00015B0BDE8F08FD80740F18580590701D5B8
:1024F00005F0D6F808A8FFF769FC9DF920302068A0
:102500000293237A0193FF230093062200F14203F2
:102510000AA974300AF020F9A9E700BF640F00206F
:10252000236893F8542052073CD593F87B20002A67
:1025300038D00B9A93F85A10107888425ED15078B0
:1025400093F85B10884259D1907893F85C108842D8
:1025500054D1D07893F85D1088424FD1107993F818
:102560005E1088424AD1517993F85F20914245D15B
:102570009DF8392093F85910A2EB010CDCF1000210
:1025800042EB0C0293F85610012953D0002A51D186
:1025900093F84D20082A03D093F87930934249D01C
:1025A00005F07EF8256895F87A30002B40D095F834
:1025B00054309F0724D508A8FFF708FC9DF9203068
:1025C0000293237A0193FF23009305F1740005F130
:1025D000420300220AA90AF0BFF801232373092548
:1025E000236893F87B20002A7FF477AF93F87A3042
:1025F000002B7FF472AF05F053F838E70022C1E7F3
:10260000DE0715D55D0701D505F04AF808A8FFF7E4
:10261000DDFB9DF9203020680293237A0193FF238C
:102620000093002200F142030AA974300AF094F8E2
:102630000325D5E70A25D3E722689DF83A1092F8DA
:102640007A30059392F8483092F87BB0012983F0F4
:10265000010A40F0AB800C994F7907F0C007A7F151
:1026600040004742474192F85410490740F1A0808A
:1026700092F84C10002900F09B8092F84D50082DE4
:1026800000F09980284602F00FFA002818BF824611
:10269000002F00F092800C99284602F04FFB06466E
:1026A000216891F84100002E00F0898040F0020975
:1026B00091F85420530752D50B9A91F85A5092F83A
:1026C00000C0AC457DD192F801C091F85B50AC459B
:1026D00077D192F802C091F85C50AC4571D192F874
:1026E00003C091F85D50AC456BD192F804C091F8ED
:1026F0005E50AC4565D1557991F85F20954260D127
:102700009DF8395091F85920A5EB020CDCF1000539
:1027100045EB0C0591F87920082A54D091F84D80AA
:10272000A8EB0202D2F1000848EB0208002E4DD1BE
:10273000BAF1000F4CD00C9B9DF83A2042310BF0BF
:102740002DFABBF1000F08D0236893F85630012B07
:1027500057D013B955EA080353D104F0A1FF2368F9
:1027600093F854309B073FF482AE04F099FF059B29
:10277000002B3FF47CAE20680C9B9DF83A2000F1C2
:10278000420190F841000BF009FA08B925680EB330
:1027900008A8FFF71BFB9DF9203020680293237ADD
:1027A0000122CDE9009300F14203B1E600275AE788
:1027B00092F8795063E7002672E73E4670E781465B
:1027C00076E70025A6E74FF00008AFE70120B8E75D
:1027D0003046B6E795F85530023B012B3FF647AE41
:1027E000002F3FF444AE08A8FFF7F0FA9DF920301F
:1027F0000293237A0193FE230093012205F1420301
:1028000048E60028A9D00A2567E600BF13B5404C6A
:10281000FFF758FB236800225A721A6D11885981FC
:1028200040F2E2409169B1FBF0F11984118C528CB5
:102830009A844FF47F42DA844FF6FF7259841A85E6
:10284000694620690BF061FB216891F8483001F17D
:102850001402E3B123691B785B0618D59DF8053097
:1028600003F0C003402B12D10098BDF8043048613A
:102870009380207A082801F10E0239D00D3102F040
:10288000FFF938B941F204413220FDF7F1FF00238E
:102890004B61EDE723685A7B42F002025A73D3F88A
:1028A0007D20C3F81A20B3F88120DA83236893F9D6
:1028B0005810186D02F026FB206816490BF032FC08
:1028C00020681549036D1A88A0F8332093F89630D4
:1028D00080F835302A300BF02EFC2068022100F001
:1028E000B9FBFFF7E9F902B0BDE81040FFF7D4B932
:1028F00091F883304B73D1F87D30C1F80E30B1F8C8
:10290000813093800023C1F81A30CB83CEE700BF1B
:10291000640F002059C20000F7C10000036D10B51C
:10292000044623B940F257313220FDF7A1FF0222BD
:1029300042721B884381FF2380F827304FF6FF73D4
:10294000038503490BF0EEFB0023236510BD00BF98
:1029500059C20000F8B5184F0E4638610121002019
:10296000FEF73AFB054620B940F67F013220FDF71D
:102970007FFF4FF48872002108F0DAFD012108463C
:10298000FEF72AFB044620B14FF48872002108F0BC
:10299000CFFD7B6813B940F68901E7E7304609F0BF
:1029A000EBFC28460AF01DF824B12046BDE8F840AB
:1029B0000AF017B8F8BD00BF640F0020014B024AAF
:1029C0005A607047640F002068050020026810B547
:1029D00022B940F653113220FDF74AFF034B1A602B
:1029E0005B68BDE810401B68184700BF640F0020FB
:1029F00038B590F84030054613F0FD0F14BF0120A4
:102A0000002085F8410005F1420101F0DFFE95F854
:102A10004030023BDBB2012B94BF0123002385F839
:102A2000483015D802F026F904460CF056F9094B47
:102A3000A4FB03341B1844EB0104C5E92234002035
:102A400002F048F920B940F6F6113220FDF710FFE8
:102A500038BD00BF40420F00014936300BF065BB66
:102A600019C2000010B5074C0146206809F0A8FB08
:102A7000EFF3108272B623790133DBB2237102B90E
:102A800062B610BD780F00202DE9F0474C4D046868
:102A90009DF820809DF824901F462B790E4600213A
:102AA0009246016073B92868A4F1080109F088FB17
:102AB0002B790133DBB22B71AB68002B7CD140F258
:102AC000A1114AE01A2204F1090008F031FD0123A6
:102AD000A372BAF1060F3ED8DFE80AF00421273DC1
:102AE000313D2B00E37A23F0130343F01303E37229
:102AF0009DF92830237601232375FF23A375B9F1AF
:102B0000080F4FF07F03E37504F10E0248D004F183
:102B10000D01484602F0B4F810BBB9211DE0E37A7C
:102B200023F0150343F01503E1E7E37A43F01003C4
:102B3000DDE7E37A23F0120343F01203D7E79DF8B1
:102B40002C30E27A43F01A0322F01B0203F01B033D
:102B50001A43E272CCE740F219413320FDF788FEB8
:102B6000637B43F002036373E37A5B0721D5A8F12B
:102B70000202012A8BBFB2683A681168E26188BF1D
:102B8000E16104F11C0394BFBA8892889A8084F8AA
:102B90001B80002323720B4920460BF0C6FA8BE7FB
:102BA000737C637373681968C4F80E109B889380F4
:102BB000DAE7FF23E376ECE70023AB60BDE8F087BC
:102BC000780F002007C60000233270B592B2054688
:102BD0000C461E4609F0BCFA35B1044A00231560C4
:102BE000147356731471936070BD00BF780F00208A
:102BF00010B5044C206809F0CDFA0023A360237BB4
:102C0000237110BD780F002070B5154DAE6826B148
:102C100040F23F113320FDF72BFE286809F0C0FA7F
:102C20000446A86010B94FF4A171F3E72B79013B7A
:102C3000DBB22B7100F1080523223146284608F04B
:102C400077FC7F23E377FF23A377637584F8233032
:102C5000E37C012262F34613E374284670BD00BF93
:102C6000780F002008B5084B9B681BB93D21332025
:102C7000FDF7FEFD03F10802904202D04FF4AA7165
:102C8000F5E703F12B0008BD780F002010B5064CC6
:102C9000A16841B1206809F093FA23790133DBB2CE
:102CA00023710023A36010BD780F00202DE9F04FA1
:102CB0008FB004461F46BDF86080069289460CF02E
:102CC0000CF8D4F8C430039020460493059109F021
:102CD000A6FD069B8346002F00F05181002B00F0DB
:102CE000C1800746039B13F5FA65059B43F1000677
:102CF00000F08AFC8246514604F1D800079000F0AB
:102D000059FCD4F8041111B1079809F0E4FEBBF1A5
:102D1000000F18D0D4F8E0B0BAF1000F16D0DAE9FD
:102D20000031DAF80800C01841F10001CDE9005681
:102D30005A460AF01AF88345824607D240F26931B2
:102D40002120FDF795FDD4F8C0B0E5E7D4F8C030F8
:102D500003F2CF701AEB05058244BAFBF3FA03FBCA
:102D60000AFA46F10006B5EB0A0366F10002C4E96F
:102D70003632B8F1000F6CD14FF0FF326FF00043E4
:102D8000C4E92823012004F0E9FED4E928130793BD
:102D9000079A4B1B00F523404FF47A7800F1A1000D
:102DA000B0FBF8F000F2652862EB0600012B70F131
:102DB00000024FF00002C0F2DB80DDF810C09C453D
:102DC000824100DB0493DDF810A0D4F8C400069B18
:102DD000824528BF8246C4F8CCA02BB1D4E9362363
:102DE000C4E92A56C4E92E234FF0000BC4E92C563F
:102DF000C4F8C8802A4689F809B0334620460491B1
:102E000009F016FDC9F8048089F80800002F00F0C9
:102E1000B180012389F80030DDE90331059AC81A31
:102E2000079B63EB0203012873F1000206DB66498E
:102E300081427BEB0303ACBF83468B46ABEB0801BF
:102E4000C9F81010C24534BF002001200FB0BDE802
:102E5000F08F42F2107329463246E8FB0312C4E9B0
:102E600028128FE7002800F08D80D4E928126FF037
:102E700000439A4208BFB1F1FF3F75D0012004F032
:102E80006DFE069B8DF82030039B13F59A72059B0F
:102E900000F5234043F10003CDE90C234FF47A758C
:102EA0000223A130B0FBF5F000F2652508A80995D2
:102EB000ADF8283006F058FE074610B940F29541AB
:102EC0003EE7D4E928320C99059E5B1A0D9962EB16
:102ED00001025B1B62F10002002A049B039DB8BF44
:102EE000002304934EE701208DF820B004F036FE55
:102EF00000F523404FF47A73A130B0FBF3F000F2F9
:102F000065200990D4E93603D4F8C050D4F8B01045
:102F10008DF829B00A1AB2FBF5F26A43121843F190
:102F200000032046CDE90C2309F082FC29468DF8E8
:102F3000280008A80AF0AEFEDDE90C5641E0D4E90D
:102F40002A232046079109F05BFC079900FB08F84B
:102F500018EB0A0041F10001C4E936012A46334664
:102F6000204609F04DFC0DE7039D059E074609E745
:102F7000049228E7C9E9045689F8007062E7002B3B
:102F80007FF4B0AED4E936A1D4F8C080039BA3EBA4
:102F90000A051AEB0803B5FBF8F508FB05F541F146
:102FA0000006ED184FF0000B46F10006002FC6D0CA
:102FB000039BEB1AB3F59A7F95D218EB050546F102
:102FC00000065F46DEE600BF0040420F70B50446D3
:102FD0000D4690F8003103F0FF0623B14FF427713E
:102FE0002120FDF745FC11B940F29D21F8E701468B
:102FF0000C4806F05FFD202884F8980010D0C4F833
:10300000045195F8D83103F0FF0113B140F2A62125
:10301000E6E784F80811204609F002FE012070BDA1
:103020003046FCE741CB000038B504460D4601466A
:10303000074806F03FFD202884F8980005D0204678
:10304000294609F0EDFD012038BD0020FCE700BF56
:1030500041CB000001292DE9F341044604D902299E
:103060004CD040F6090120E0D0E92A6704F074F959
:1030700040F23965D4F80481751947F100062D181E
:1030800046F10006D8F8187000F0B8FA04F1D80339
:1030900083420DD0CDE900563A46D8E96C0109F0DB
:1030A00064FE874205D240F27D312120FDF7E0FB2E
:1030B0000020254B1A68D4F80431824297BF40F2B1
:1030C000E2419A69B0FBF1F201FB120294BF821A4D
:1030D00080189A6241F66A029A859A6A41F66901F5
:1030E000821A8A4202D940F29A71DEE7401946F10B
:1030F0000006C3E96C0602B0BDE8F081D0F80431E7
:1031000013B940F2A571D0E7002540F2011283F80F
:10311000D851A3F86820FF2683F86A60D0F804012C
:103120002946303002F0ACF9D4F8040109F0F5FD7D
:10313000C4F8045184F8086104F004FB02B0BDE84F
:10314000F04106F06FBB00BF880F0020F7B51E4EA0
:10315000012333700027CDE900776846FDF7B4FFFF
:103160000546C8B10023337003B0F0BD90F8D90113
:1031700007F0DEFB94F8D90184F8D85106F0C6FCBC
:1031800010B94FF4D7711BE0202384F8D93104F52E
:10319000D87000F0F3F9DEE7009B002BDDD093F848
:1031A000D821002AD9D018884FF6FF739842D9D079
:1031B0002946FDF74FFF04460028D7D140F2BF1142
:1031C0003520FDF755FB00BF8C0F002038B50C4BA8
:1031D00090F86820054690F8690033F8124004F032
:1031E000BDFC04F29D7404444FF47A712846B4FB8C
:1031F000F1F1BDE8384001F5B4710BF072B800BFD1
:10320000324C02002DE9F843054691F88E800C46B9
:1032100016461F461BB10121204603F05BFC94F8C3
:10322000D831032B3DD8DFE803F00239333926B912
:1032300040F223213520FDF71BFB012384F8D83110
:103240002046FFF7C3FF4FF00009D4E96C3219EBB9
:10325000030342F10002C4E96C32C5E904320023E1
:103260002B7094F88E600B3EF3B21A2B9FBF3A4E30
:10327000DE40F64306F0010688BF0126204686F0B0
:1032800001060BF01DFC00B176B100232B7211E09A
:103290000323D4F8E09184F8D831D6E7D4F8189015
:1032A000D3E740F25D21C5E794F8D831012BDAB2BB
:1032B0002BD12A7200236B7204F130000AF0B4FFA4
:1032C0006860002F46D0A8F10D08B8F1010F41D970
:1032D000494628460AF0DEFC1FFA80F820460BF02B
:1032E000EFFB0746D6B9804518D32E72D4E96C316E
:1032F00009FB00F29B1841F10001C5E90431B9F165
:10330000000F04D140F2A72194E70223BEE749460B
:1033100028460AF0BFFC38441FFA80F84146204690
:1033200003F0D8FBD5E90423C4E96C23236F8BB1E8
:10333000B4F8BE10B4F888305B1A1BB2002B09DD5C
:10334000B4F874201344013BB3FBF2F313FB0213F4
:10335000A4F8BE30BDE8F883050000042DE9B841AB
:10336000044618B9F4213520FDF782FA07295AD806
:10337000DFE801F00442423E59484F5690F8D831F8
:103380000BB9FC21EFE703F0E5FA00284ED0DFF897
:10339000A080A56998F801301BB9236B9D4228BF16
:1033A0001D4604F130000AF03FFF00F167070220DC
:1033B00007F042F9ED1B25EAE575854228BF054671
:1033C0000221284607F08CF900B92F444FF4B1725E
:1033D000394620460AF079FFC8F80400A06907F0D2
:1033E000DDF808B9EE21BEE7BDE8B8410BF02CBB13
:1033F000BDE8B84104F078BABDE8B8410122002127
:1034000009F064BC012005F0E7F8BDE8B84108F018
:10341000F0BE90F8D831042B08D04FF49171A2E798
:1034200040F227119FE740F22B119CE7BDE8B881DD
:103430008C0F0020024B0022C3E90022FFF786BE5A
:103440008C0F0020014B5870704700BF8C0F00207C
:1034500038B5044620B940F291113520FDF708FA3D
:1034600090F8D83103F0FF0513B14FF4C971F4E7B8
:1034700090F8D931202B02D040F29311EDE70146AC
:10348000044806F017FB84F8D901202814BF284609
:103490000D2038BD5D33000008B503F05DFF054B1E
:1034A0005A6882422ABF1878002080F0010000F09C
:1034B000010008BD8C0F002010B50446042936D841
:1034C000DFE801F0031A161E31001B4B1B7803F0D6
:1034D000FF026BB9012109F0F9FBB4F88830013320
:1034E000A4F8883004F02EF9BDE8104006F09AB92F
:1034F000042384F8D831F5E7032384F8D83110BDCC
:103500008369C0F8E031D0F8FC318362B0F8F8315B
:103510008385D0F800328361D0F804320362FFF76C
:1035200055FE0223E9E7BDE81040FFF74FBE40F229
:103530003D313520FDF79CF98C0F0020014B002216
:103540001A607047940F002008B5044B186810B932
:10355000FFF7F4FF08BD0C20FCE700BF940F00202C
:10356000C3693BB983692BB9034B1B681B1A5842CB
:103570005841704701207047940F002010B5D0E9E2
:1035800006436BB1D0E902211144DA689C610A4418
:10359000DA6082693AB1D3610023C0E9063310BD15
:1035A000034A1460F5E7002BF6D0DA60F4E700BFB9
:1035B000940F002008B5C16191B90F4A1368836167
:1035C00003B1D8611060C2690023C3609AB1D368A7
:1035D0007BB181688B420AD22D213720FDF748F953
:1035E0008B6988618361002BEDD0D861EBE75B1AB2
:1035F000C3600023D36008BD940F0020014B1868FE
:10360000704700BF940F0020034B1B68002003B9D4
:10361000704718469B69FAE7940F00200B4B002275
:103620001B6830B504464FF0FF35104623B911B979
:10363000002808BF104630BDDA68A24203D3AA4270
:103640003CBF154618461A469B69EFE7940F0020C9
:1036500038B5036A1BB182689C68A24203D2CD21AF
:103660003720FDF705F9C1698569D9619D6141B1CF
:103670008B61996941B1CB61C1680A44121BDA6060
:1036800038BD02490B60F4E7D960F9E7940F0020D8
:10369000F8B5264B0446084600211D680B466DB957
:1036A0005BB1984225D3B0FBF3F1013C03FB01F57C
:1036B0001C44B4FBF3F48C420ED9F8BD2E690BB157
:1036C0009E4207D226B94FF496713720FDF7D0F805
:1036D000A98A3346AD69E2E7B5FBF3F603FB16565C
:1036E00026B9B5FBF2F602FB1656DEB10139ED1A2A
:1036F000E1E7451E1D44B3FBF4F4B5FBF0F5AC4225
:10370000DBD3B3FBF5F605FB16374FB9B6FBF2F783
:1037100002FB176727B9B6FBF1F701FB17671FB16B
:103720000135ECE72846C8E73046C6E7940F00208D
:1037300010B5044609F034FB08B9002010BDE04381
:1037400009F02EFB0028F8D0E31683EAA4635A1E82
:103750001A42F2D020460AF003FE1828EDD8A3B290
:10376000B3EB144F04D184EA142313F0FF1FE4D009
:10377000034B63405A1E1A4214BF01200020DDE7AC
:10378000D6BE898EF0B5070CA7F5AA42144B543A61
:10379000012A03EA90231FD927F4004042F6AA2207
:1037A000801A18BF01200022162116461F2487EA1E
:1037B000060562EA0505013510D0DD03ADB245EA24
:1037C0005606E503ADB2013945EA52024FEA53030A
:1037D0004FEA5404EBD1F0BD0020E4E70020FAE703
:1037E000E0FF3F0010B50446084808F0E7FE204619
:1037F000074909F0FEF8204608F038FE20B12046BF
:10380000FFF7F6F8002010BD1220FCE79C0F002007
:10381000A40F00202DE9FF410678012E074640F055
:10382000878031460020FDF715FC054620B940F69B
:10383000C5613920FDF71CF8BB88002B72D108F058
:1038400090FD002870D195F80031002B6ED12846EC
:10385000FFF7C8FF0446002860D131463046DFF844
:103860003C81FDF7F7FB98F8183006461BB110B9FC
:1038700040F6E161DDE7D8F814200392002B45D033
:1038800096F80031002B41D07B88002B3ED198F870
:1038900004300093D8F8102098F8061003AB304697
:1038A00008F05CFE90B3304609F0CDF806F1400315
:1038B000074605F140026C3653F8041B42F8041B1E
:1038C000B342F9D12846FFF78DFF024610B140F60A
:1038D0000371AEE70C2F07D101462846FFF7A4FB82
:1038E000E0B940F60771A4E717B140F60C71A0E704
:1038F00098F80530296D43F0040385F854302846C4
:10390000FFF764FB50B940F60E7192E7BA887988E8
:103910002846FFF789FB002808BF0724204604B08B
:10392000BDE8F0811124F9E73A24F7E70C24F5E724
:1039300001210020FDF78EFB054610B940F62171EC
:1039400077E708F0F7FF04460028E7D195F85430F0
:1039500095F8902022B195F89120134385F89000B6
:10396000053B012BDAD82B6D13B940F6317160E7B6
:1039700001210846FDF76EFB294606464FF4887282
:1039800007F05EFD0423316D86F854303046FFF7B2
:103990001DFB0028C2D140F636714AE7980F00207F
:1039A000304BF0B51A88B0F85C70B0F85A605D889A
:1039B000974228BF1746964228BF16461B2E85B051
:1039C0000C462ED0B5F5A47F2DD040F648039D427D
:1039D00001A928BF1D4609F0A5FABDF80A309F428B
:1039E00028BF1F46BDF80C30E780AB4228BF2B46EE
:1039F0002381BDF806309E4228BF1E46BDF8083020
:103A000066809D4228BF1D46A580FF232370E38862
:103A10001B3B9BB2E02B08D940F2F7513920FCF751
:103A200027FF1B2FCED105B0F0BD63881B3B9BB297
:103A3000E02B02D940F2F951F0E72389A3F5A473F2
:103A40009BB2B3F5E06F02D940F2FB51E6E7A388E1
:103A5000A3F5A4739BB2B3F5E06FE4D940F2FD5136
:103A6000DCE700BF980F002070B5154D0AF095F8FF
:103A700001F026F800F092FD0AF035FB01F080FA23
:103A800002F0F0F801F0A4FA2A460E4B42F8043B8B
:103A90000D4B0E49196000241B219980DC821C8388
:103AA0005C745C820A4B2C7718681979686008335B
:103AB000117193E8070005F10C0686E8070070BD58
:103AC000980F00201B004801E413002003021B0094
:103AD000384C0200044B41F64C52C3E902221B222F
:103AE0001A74FFF7C1BF00BFE4130020014B93F924
:103AF00022007047980F0020034B5A8802801B78E1
:103B000083700020704700BFE413002013B5837852
:103B10001A2B044609D8042B05D9012202FA03F313
:103B2000114A134205D1122017E0292B01D03B2B5B
:103B3000F9D12088B0F5706FF5D269460AF07CF8AB
:103B400068B9019B93F8282102F0FF004AB9A278D6
:103B500083F82921FF2283F8282102B010BD02201A
:103B6000FBE70C20F9E700BF200038040188A1F131
:103B70001B039BB2E02B0CD84288A2F5A4739BB226
:103B800044F24810834204D8034B002019805A8025
:103B900070471220704700BF980F0020034B1A880F
:103BA0005B88028043800020704700BF980F002090
:103BB00038B504784278857804F0010352EA0301AD
:103BC00004F0020401D1112038BDBCB9002DFAD097
:103BD000002B08BF144601E000242546204609F0CA
:103BE00068F90028EFD0284609F063F90028EAD0E8
:103BF000054B00209C74DD749882E5E7002BEBD127
:103C000014461D46EAE700BFE413002013B5008800
:103C100069460AF011F818B10224204602B010BD1E
:103C2000019809F0F3F80028F6D0019890F83A319D
:103C30000BB13A24F1E790F8DC3003F0FF04002BDD
:103C4000F7D190F8D3309B0703D1FF2380F83A31A6
:103C5000E3E70249D4300AF06EFADEE78FE80000AD
:103C6000F8B50378032B044602D912252846F8BD7F
:103C70004378032BF9D8467E0EB11125F6E78378F9
:103C8000012BF2D100F080FCC307F6D5A27812F028
:103C9000010514D0E178A568236901294AD83D4976
:103CA000A3F25370884247D86FF41C7CA5F6C41069
:103CB0006144884240D89D4234BF122500259007B8
:103CC00012D5E078A3682169012837D832488142AB
:103CD00036D8A3F6C41CA0F6C410844530D88B4255
:103CE00034BF122300231D43510712D5E178A26887
:103CF0002369012926D82949A3F6C410884223D86C
:103D0000A2F6C41088421FD89A4238BF1226354303
:103D1000EDB2002DAAD1237E013B062BA5D80121AF
:103D20002846FDF797F9064680B940F6C651392076
:103D3000FCF79EFD1225C2E73025C0E71223D2E72B
:103D40003023D0E71226E2E73026E0E7A03008F083
:103D50004AFE18B196F854309A0718D1E278A17843
:103D6000A068B4F800C0267E012A1ABFB2FA82F217
:103D700052090222CB0748BF2769094BC3E9040750
:103D800019715A71A3F806C01E7219736EE70C25DB
:103D90006CE700BF3CF670028FFD7002CBF370023F
:103DA000980F002000B589B043798DF804308379ED
:103DB0008DF8053001238DF8063003788DF8073033
:103DC000B0F8013040F271214B430393B0F8032067
:103DD0004A430C490592097A8DF81C1000218DF890
:103DE0001D100949A2F6C4128A4209D8A3F6C413C9
:103DF0008B4205D801A8FFF733FF09B05DF804FB3B
:103E00003020FAE7980F00203C369C002DE9F04F57
:103E1000437A990744BF43F001034372447A62072F
:103E20008BB0054604D1122738460BB0BDE8F08FA1
:103E300014F0F80FF7D1022CF5D000F0A5FB34EA0E
:103E4000000340F0B78195F84870002F40F0B28130
:103E5000012CE8D1AB69AF4AA3F25371914200F251
:103E6000A781EA689342DED8B5F842300193AB8F60
:103E700000932A8EEB8E698DA88C09F027F8002814
:103E800000F096812B789A1E022A40F29381012B32
:103E9000C9D813B9AB78012BC5D86B78032BC2D81E
:103EA00095F84930013B062BBDD8DFF86CA2012103
:103EB0000020FDF7CFF89AF81830064673B90121B3
:103EC0000846FDF7C7F8002818BF064606F1A0000F
:103ED00008F089FD8046D8B10C27A5E7A03008F08E
:103EE00082FD0028EBD0D6E928126FF000439A42F9
:103EF00008BFB1F1FF3FE2D16B7A0093EA686978BD
:103F000005F11803304608F029FB80460028D6D07A
:103F1000304608F02CFA08B13A2785E7304608F019
:103F200020FA81460028F7D101460DF11600FDF771
:103F30001BF80446002800F03981784BBDF816B014
:103F40001868079049461B79DFF8D4918DF8203026
:103F5000204600F089FF734BC4F8E8312046D9F8B9
:103F60000830A4F800B040F8303F08F0CAFE0390D3
:103F700000F004FB039B63876B4B99F810201B68D0
:103F800084F8382010F0200F0FBF1B21B9F804105F
:103F9000B9F80200A4F85A0008BFA4F85A10A4F80F
:103FA0005C101BB194F96C1058469847B9F804306E
:103FB000B9F8022099F80110019199F800100091C8
:103FC000033303329BB292B204F1140104F11000E6
:103FD000FDF7B2F8236923B941F243113920FCF708
:103FE00047FC636913B941F24411F7E708F0E8FEB2
:103FF000E06101F0BDFA20F07F40606295F84A3040
:1040000005EB430340F2E24B598D988C5A460BFB6B
:1040100001F10BFB00F0FFF73BFBA4F8C4B1A0617A
:10402000C4F8C00195F84A30D9F80C1005EB4303E9
:1040300020461A8EDB8E2284638408F05FFE07A977
:1040400004F1960009F0B2FEFF2384F8EC31DAF8AF
:10405000243023B1012204F595712046984799F840
:1040600012A099F813B0B9F81490BAF1000F40F00B
:10407000EF8000F089FA8246BBF1000F40F0E48047
:1040800000F082FA8346BAF1000F21D1092701F02E
:104090006FFA0C23B0FBF3F202FB1300C0B2431D16
:1040A000DBB2082B9ABF0D3084F8A20084F8A2304E
:1040B0000121204600F0D8FE002F40F0C3802046AA
:1040C000FFF7C6F9B8F1000F0FD0A0B10746ACE07A
:1040D0000028DBD006A920468DF818A08DF819B06D
:1040E000ADF81A9009F02BFED1E70028EED16978DF
:1040F000304608F0EDF905F1030AAA78297853460D
:10410000304608F092F9002856D1B8F1000F4BD193
:104110001220DBE73CF67002980F0020667E02005A
:10412000E4130020B40F002090050020DDF81C905F
:104130004C4566D0BBF1000018BF012099F8022061
:1041400009F10303514609F029FD002859D099F8D7
:104150000920607A09F10A0304F10A0109F01EFD41
:1041600000284ED00B2760E0EB6808936B7A8DF83F
:104170001C80DB0744BFAB69099307A948BF012333
:10418000304648BF8DF81C3008F033FC95F84910D4
:10419000304608F047F921463046FEF717FF002861
:1041A0007FF442AE072740E012273EE00D273BE6B2
:1041B000302739E6112737E6B8F1000F02D1304633
:1041C000FEF716FCAA7829785346304608F08DF998
:1041D000B8F1000F02D1042386F854303465AB786F
:1041E00013F0FD0F524614BF01210021304608F0A4
:1041F00097F92B7853B995F802B0CDE907330BF056
:10420000FD0B07A8FCF760FF00288FD00121304686
:1042100008F0A1F9B8F1000FA6D00421304608F04B
:104220002EF900287FF400AE0C27208800F042FA17
:1042300020880021FCF724FF00283FF4F5AD41F26F
:104240000A41CBE6384641E700283FF41FAF41E77B
:10425000BBF1000F7FF43EAF12E700BF10B543790A
:10426000032B94B056D823F002038DF80630D0F813
:104270000630CDF807304389ADF80B3002798DF860
:10428000042001238DF80D30027B03888DF8052072
:1042900040F271225343049341884A430792847B3E
:1042A000417B41EA0421ADF82810047CC17B41EA3E
:1042B0000421ADF82E10847C417C41EA0421ADF844
:1042C0003410047DC17C41EA0421ADF83A10417DEF
:1042D000847D41EA0421ADF84010C17D007E41EAB1
:1042E0000021ADF8461000218DF84C100B488DF8D8
:1042F0004E100B49007A8DF84D00A2F6C4128A4286
:104300000AD8A3F6C4138B4206D801A8FFF77EFD96
:1043100014B010BD1220FBE73020F9E7980F002001
:104320003C369C0038B501210020FCF793FE054681
:1043300020B941F23C413920FCF79AFAA03008F04C
:1043400052FB1E4B1B7E5BB3F0B195F85430053B1E
:10435000012B19D8284608F076FB044610B141F22B
:104360004741E8E72846FEF7D9FA95F8543023F09C
:10437000040385F85430224621462846FEF754FEB1
:1043800080B941F24C41D6E701210846FCF762FEB4
:10439000054610B941F25341CDE7A03008F023FBA8
:1043A00010B90C24204638BD284608F04CFB0446C2
:1043B0000028F7D12846FEF7B1FAF3E7980F00205E
:1043C0000278034672B1427862B142881A2A09D94A
:1043D00082881A2A06D9044A006810609B88938054
:1043E0000020704712207047E4130020024B02683F
:1043F0009A600020704700BFE4130020024B02685F
:10440000DA600020704700BFE41300200378A3F1B6
:104410000A02112A9DBF024A00201374122070471D
:10442000E41300200378FF2B15D14378FF2B12D122
:104430008378FF2B0FD1C378FF2B0CD1037923F0A6
:10444000E0021F2A07D113F0E00F04D0034A5B09F2
:104450001372002070471220704700BF980F002091
:1044600008B5052000F07CF80AF026FB014B024A53
:104470005A6208BD980F0020A139000008B5FFF767
:104480005DF8FEF7D7FFFFF731FBBDE808400146B6
:104490000148FEF75FBA00BFC00F002008B5FEF765
:1044A0008DFAFFF7EBFF09F076FB074800F5847102
:1044B000FDF7CEF8002007F01DFE0AF0FBFABDE87C
:1044C000084000F067BF00BFC00F002010B5094CC6
:1044D000094904F5037009F0A4F904F504700749CB
:1044E00009F09FF904F505700549BDE8104009F091
:1044F00098B900BFC00F00209C050020A405002033
:104500009405002038B5094C0D4600F01FFFD4F883
:104510000C02C4F8045109F07CF9FFF7DBFA01F052
:104520003FF8012384F8183238BD00BFC00F0020C7
:10453000014B93F818027047C00F002010B5074CCC
:10454000D4F8100209F065F9D4F8140209F061F901
:10455000FFF78AFA002384F8183210BDC00F00203C
:10456000C2080549012300F0070003FA00F08B5C44
:1045700018438854704700BFD8040020014BD3E98A
:1045800000017047D8040020034B1868C0F30020D6
:10459000400040F001007047D804002008B50AF040
:1045A0007CFB084A002332F82310814205D302EB3A
:1045B00083039B78044A137008BD01330C2BF2D19E
:1045C0000023F7E74C4C0200D9110020024B187869
:1045D000072828BF07207047D911002010B544686C
:1045E0002388A4F8783194F8683084F87711012B87
:1045F00006D0022B04D040F217310620FCF738F920
:1046000084F87A3194F86930012B01D0022BF2D171
:1046100084F87B31044904F5B77009F08CFD002360
:1046200084F8343110BD00BF8FD8000040680849BD
:104630000388A0F86A3190F8603080F86C3190F807
:10464000613080F86D3100F2611009F06EBD00BF7D
:10465000A5D8000030B505680446084651B115B12B
:104660002179994215D1FF216171237122600023C4
:10467000637130BD002DFCD0FF236371237921606D
:104680000122054902FA03F3C1F8083560711046AA
:10469000EFE70020EDE700BF00F00140044B0022EF
:1046A00083F822204FF6FF729A84DA841A857047C5
:1046B000DA110020054B9A8C824201BF002283F858
:1046C00022204FF6FF729A84704700BFDA11002053
:1046D000014BD884704700BFDA110020094A034615
:1046E000908C4FF6FF71884206D192F82210012972
:1046F00005D01A6001207047002018607047002024
:10470000704700BFDA110020064B93F82220012ADF
:104710001FBF0120DA8C83F822009A8408BF002092
:10472000704700BFDA110020014B1885704700BFA9
:10473000DA110020064B0246198D988C884205D16B
:1047400093F8220018B113600120704700207047D1
:10475000DA110020094B998C1A8D914201D000206A
:1047600070474FF6FF729A8493F82220002AF6D001
:10477000002283F822200120704700BFDA110020B8
:10478000054B998C1A8D914203BF93F82200B0FA21
:1047900080F0400901207047DA11002050B90A4A20
:1047A0001346012003F8010B0868C2F801008A884B
:1047B0009A807047012805D1034B0A689A608A885D
:1047C000D8719A81704700BF0412002048B90A4B83
:1047D000187880B1D3F80120B3F805300A608B80D7
:1047E0007047012806D1044BD87920B19A680A6035
:1047F0009B89F4E7002070470412002020B9054B84
:10480000187800F00100704701280ABF014B002012
:10481000D879F6E704120020F7B500228B888DF8CE
:104820000600ADF8043008680C4B8DF80720019D98
:104830001C78014603F5AC73D0B2844201D808203D
:1048400009E0D3E90076AE4208BF8F4203F10803C6
:1048500002F10102F0D103B0F0BD00BF1812002038
:1048600030B5094B01465C78002203F58173D0B264
:10487000844201D8082005E013F8015B8D4202F163
:104880000102F4D130BD00BF18120020F8B52E4C43
:104890006278013AD2B22318824293F802516270D0
:1048A00032D0130101019E1C8F1C2644274406F1BF
:1048B000100C56F804EB47F804EB6645F9D1823347
:1048C00082312344214403F1100653F8047B41F85C
:1048D000047BB342F9D1A618211896F8023181F869
:1048E00002314FF48577062313FB027213FB00702D
:1048F000A318A258225004EB000C9B88ACF804309B
:1049000096F83A3181F83A312846FFF7A9FF08288E
:1049100018D12378013BDBB29D42237012D02B3398
:1049200004EBC30393E8030005F12B0204EBC2027E
:1049300082E803002078FFF793FF08281CBF2418A3
:1049400084F80251F8BD00BF18120020F0B5254DC3
:1049500095F8984189B0224605F29911684606F00B
:104960006FFD2146684609F037F90446B8B300EBFD
:104970004001C9B202A8FCF7FBF8601E95F8A161DE
:10498000C0B2012495F8982105E0731CB3FBF2F145
:1049900002FB1133DEB206F120030DEB030111F827
:1049A000203C002BF1D100EB400220326A4406EBA0
:1049B00046032B4412F8187C83F8A27112F8177C76
:1049C00012F8162C83F8A37183F8A42101F8204C67
:1049D0000138AB19C0B2FF2883F89941D2D109B090
:1049E000F0BD00BF1812002070B5064688B00C4616
:1049F000002A4FD02A4A92F8A131D01890F8991184
:104A000021B94FF480712820FBF732FF03EB4301FB
:104A10001144013391F8A251E57091F8A35191F836
:104A2000A41161710021257180F8991192F89811F3
:104A3000B3FBF1F001FB103382F8A13192F8C231DF
:104A400023B9184902F5DD7009F072FB657905F0AC
:104A50003F0545F0400565710D220021684606F0CE
:104A600067FDE3788DF80F3023798DF80E3004AAB6
:104A70000423694630468DF80D5006F0AFFA9DF8D4
:104A80001F3023709DF81E3063709DF81D30A37099
:104A900008B070BD03216018FCF76AF8D6E700BFC4
:104AA000181200204D490000044B5A78824286BFFC
:104AB0001B1893F842010020704700BF1812002015
:104AC000064B00224FF461711A8083F8C32183F8EA
:104AD000C421A3F8C61183F8C22170471812002020
:104AE000014B83F8C40170471812002010B514461A
:104AF000FFF792FE082803D1012000F0010010BD4D
:104B0000FFF7AEFE064B5A788242F5D904B1207009
:104B1000184490F83A31012BEED090F84A01ECE7B6
:104B2000181200202DE9F04782468946174698461C
:104B3000FFF772FE08280546064603D0FFF790FEF1
:104B4000082863D1334C6378072B61D8082D18D11E
:104B50002678731C072E237003D96B212820FBF7BE
:104B600087FE06F12B03DAB2D9F8000044F83200D0
:104B700004EBC20104EBC303B9F804208A8083F874
:104B800006A065786B1C290163704B1C07F11002AD
:104B9000234412F8010D03F8010FBA42F9D1813113
:104BA00008F11003214413F8012D01F8012F984555
:104BB000F9D11021404609F061F82544102185F80B
:104BC0004201384609F05AF885F80261667885F89E
:104BD0004A01002385F83A3131460F4808F0FCFFBE
:104BE000314605460D4808F0F7FF012D03D800288F
:104BF00018BF0135EDB284F898510025284684F895
:104C0000A151FFF7A3FE2846BDE8F0871220FBE77D
:104C10000720F9E7181200205A1300206213002021
:104C200010B5064B5878013840B2002800DA10BDA4
:104C3000C4B22046FFF72AFE601EF5E718120020D6
:104C4000014B83F8C301704718120020014B93F801
:104C5000C301704718120020431E9BB24AF2B712DC
:104C600093429DBF024BA3F8C6010120002070476C
:104C700018120020014BB3F8C6017047181200202B
:104C800030B50A4B5C7884420ED9184490F8020182
:104C90002B3003EBC004A5790D7053F83000106081
:104CA000A3889380012030BD0020FCE7181200206B
:104CB0000246074810B590F8C34124B1417821B1AC
:104CC000023001F071FF204610BD0C46FBE700BF2B
:104CD00018120020F8B5184C064648B3617804F560
:104CE000A17008F079FF94F898510746294604F21C
:104CF000991008F071FF2D1AEDB2AF421AD80025B5
:104D000006270FE0E21892F8422152B907FB03414F
:104D100004EB0313324601F5857103F18200FFF7BE
:104D200063FE01356278EBB29A42EBD80120F8BD00
:104D30000546E5E70020FAE718120020F0B51B4E03
:104D40007378834289B007460D462CD9331893F8FF
:104D5000424144BB0D222146684606F0E9FBEB7850
:104D60008DF80F302B798DF80E3006EB07106B792C
:104D70008DF80D3004AA04236946823006F02EF91E
:104D80002A789DF81F309A420AD16A789DF81E3021
:104D90009A4205D1AC789DF81D00231A5C425C4113
:104DA000204609B0F0BD0020FBE700BF181200202C
:104DB000074B5A78824209D91A1892F842212AB927
:104DC000062202FB003000F5857070470020704716
:104DD00018120020F8B50E46074606213046154643
:104DE00008F04CFF044640B10A482946427800F5D5
:104DF0009D7006F09DFB2046F8BD3146384608F010
:104E000007FF08281FBF034BC018012480F83A5140
:104E1000F1E700BF1812002030B50024A0F842408E
:104E2000B0F8464042F210754C43B4FBF2F4A0F8DF
:104E30004640541E05FB0343B3FBF2F3A0F8443095
:104E4000084BB3FBF2F30133A0F84A30838F05FB24
:104E50000344436BB4FBF2F459438463B1FBF2F2B5
:104E6000426330BD005A620270B504460D4649BB2C
:104E70004FF40E7206F05CFB012384F896306FF05D
:104E8000360384F8E330042384F8E4306FF03B0306
:104E900084F8E5306F2384F8E6306FF03F0384F840
:104EA000E7302B2384F8E230FE2384F81E317F2381
:104EB00084F88D30202384F8E85084F8E95084F891
:104EC000D93170BD012912D182690D4B1344B3FB56
:104ED000F2F3C0F8B83040F6B833A0F8BC30438CD9
:104EE000114604F18000BDE87040FFF795BF02292C
:104EF000E7D1B0F80632D0F800228169F1E700BFAF
:104F00007FC3C901034B80F86C101B680BB100888C
:104F100018477047AC050020074B93F90030184440
:104F2000142804DC10F17F0F03DB40B2704714201B
:104F300070476FF07E007047E013002007B57F23B5
:104F40000DF107008DF8073002F09AFC9DF907304B
:104F500068B10A4A5078404243FA80F0142808DCCD
:104F600010F17F0F07DB40B203B05DF804FB184679
:104F7000FAE71420F8E76FF07E00F5E7E013002071
:104F8000024B00221A705A70704700BFE0130020D5
:104F9000054B1B7833B9054B1A681B790260037106
:104FA0000120704700207047E2130020E004002039
:104FB000054BFF221A70054A0168116001791171D1
:104FC00000221A70704700BFE2130020E0040020A6
:104FD00007B5064B186800901B798DF804306846B9
:104FE000FFF7E6FF03B05DF804FB00BF667E02003A
:104FF0000346407848B1DB783A2B05D8034AD35CA6
:105000001B1A584258417047012070477C4C0200DF
:105010003A2908B5C17003D8064B5B5C437008BDE4
:10502000FF2904D04FF489612A20FBF721FC0123DA
:10503000F4E700BF7C4C02002DE9F04385B08946BF
:1050400002A91446984608F0F7FD054690BB039E5A
:105050002CB9012086F8950005B0BDE8F0833769CA
:105060002146384606F080FE01460028F4D0134B56
:105070005B88A34220D301AA384606F0B8FF96F811
:1050800095300198002B0CBF4946022108F088FF9B
:10509000019841462246033006F0D2F921463846AF
:1050A00006F0A7FE18B97A212B20FBF7E1FB86F862
:1050B0009550D1E70120CFE72846CDE7E413002043
:1050C000024B987DC04300F001007047E4130020BC
:1050D000034B987D80F00200C0F34000704700BF92
:1050E000E413002083230B70014B1B78CB707047B7
:1050F000001400207FB505460C4621B94FF48B7192
:105100001020FBF7B5FB03888B8000234B724669A8
:10511000304606F05EFF014610B940F21F11EFE77E
:1051200001AA304606F063FFE08010B94FF4927197
:10513000E6E7FB2802D94FF49371E1E7019808F004
:1051400037FF012801D0022805D12072206828B934
:1051500040F23D11D4E74FF49B71D1E70199E28809
:10516000033106F06DF9304606F049FF10B94FF4EF
:10517000A171C5E70021304606F09FFE10B940F24C
:105180004711BDE70A4BDA7D82B11A8B2888013AB4
:1051900002A91A8308F050FD10B14FF4A871AFE7CF
:1051A000039AB2F8A6300133A2F8A63004B070BD5D
:1051B000E41300202DE9F74306460D464FF005089D
:1051C00000274FF003092B693BB11B7A2BB12C69E7
:1051D0009CB9002003B0BDE8F0836C68237A012BF2
:1051E000F7D0EFF3108372B66A6812686A6003B989
:1051F00062B6237A002BE6D02C61237ADBB284F8E6
:105200000880013B0B2B66D8DFE803F062062034F0
:105210005F653D6565656552636823B94FF4EE715E
:105220001020FBF725FB2046314698470420EFF37A
:10523000108372B6227A052AD1B201D0002953D147
:1052400027722F61002B4BD162B649E0636813B916
:1052500040F2E511E4E73146204698470346C3F3A0
:105260000723012BADF80400C0B237D0022BDED1EA
:105270002F6135E0636813B940F2EF11D0E72046A3
:1052800098470020D3E763680BB9DB21C8E70D22FC
:1052900032701988A6F80310012200241869B27030
:1052A0007271B471214606F008FE2C61042091E76A
:1052B000606810B940F21A21B2E70E4B31461B6804
:1052C000984700232B61022084E740F22321A7E7BF
:1052D00040F22621A4E740F22921A1E784F80890B2
:1052E00000283FF470AF75E7002B7FF46CAF62B617
:1052F00069E700BFB005002070B5134C1426231DCC
:1053000032460021184606F013F90346012525749C
:1053100000210433324604F11800C4E9013306F0D9
:1053200007F984F8245004F11C03C4E90633002370
:10533000E362236384F83430C4F83530C4F839307C
:1053400084F83D3070BD00BF0014002010B5084C3B
:105350002378FF2B04D04FF4B7711020FBF788FAA5
:1053600005F084FE2070BDE81040FFF7C5BF00BF08
:10537000E504002010B5034C207805F093FEFF23D0
:10538000237010BDE5040020014B187805F09ABE8B
:10539000E5040020014B024A1A607047B005002066
:1053A000F550000038B50B4D05F118010446FFF724
:1053B00001FF70B9AB681B7A0C2B04D1064BDA7D68
:1053C0000AB11B8B2BB120460449BDE83840FFF7DA
:1053D000F1BE38BD00140020E413002004140020A6
:1053E00010B51346027A22B140F2C9211020FBF712
:1053F0003FFA0A46BDE810400146014808F075BE74
:1054000004140020044890F834301BB903492C30B0
:1054100008F088BE704700BF00140020DDE00000E7
:105420000346064890F83E203AB190F83D2022B954
:1054300000F8353B024908F075BE704700140020A3
:10544000E550000010B50A46037A23B140F2D1219D
:105450001020FBF70DFA0146BDE810400148072374
:1054600008F043BE181400201346027A0AB10372F2
:1054700070470A460146014808F037BE0414002070
:105480001B234FF01B128384038482618382C260DA
:10549000038539B94FF4A473034AC3844384C261BA
:1054A000C3820261704700BF480148010346F0B45F
:1054B000B3F85420B3F84840B3F84460DF8FB3F832
:1054C0004250944228BF14460846B3F84C20B3F823
:1054D0005610DC878A4228BF0A46B3F84610A3F864
:1054E0004220914238BF1146A64238BF2646A74205
:1054F000A3F84460A3F846101FD1AA1A18BF0122CE
:10550000B3F84A50B3F85040B3F852709E8FB3F8D6
:105510004010A54228BF2546B3F84E409D87BC42A7
:1055200028BF3C46AE42A3F8404002D1A14200D180
:105530002AB1F0BC034908F0FEBD0122E0E7F0BC4F
:10554000704700BF3DE100000B8BA2F80B304B8B86
:10555000A2F80D308B8BA2F80F30CB8BA2F809008C
:105560000249A2F81130104608F0DFBD8DE10000BD
:10557000094AD2E90003434083EAB01181EA43219A
:105580004FEAF3435360054B116058434FEAF06014
:1055900000EB8000704700BFE8040020BB79379E15
:1055A00010B50A4C09480821FBF7E2FAD4E90023B8
:1055B0001343F7D0064CFFF7DBFF2060FFF7D8FF5F
:1055C000236860600343F6D010BD00BFE8040020EC
:1055D00040140020174B184A9A60184ADA62184A99
:1055E0001A61184A5A61184A9A61184A1A63184A85
:1055F0005A62184ADA64184A9A64184A9A63184B2D
:10560000184A9A60184A1A62184A5A60184A1A6068
:10561000184A9A62184ADA62184ADA60184A9A6195
:10562000184A1A63184A9A64184ADA64184A5A627D
:10563000704700BFB405002093E400000BE70000B2
:10564000D5E6000099E600001D590000E55A00006B
:10565000CD59000015E8000031E800008159000034
:10566000A0060020B5E40000D5E70000C9E4000072
:1056700003E5000069E7000027E700008BE7000072
:105680004BE70000ADE8000059E800004FE80000DB
:10569000EFE70000054B064A1A65064A5A65064BB5
:1056A000064A1A65064A5A65704700BFB4050020CD
:1056B000A9E5000037E50000A00600201DE5000078
:1056C00057E60000054B064A9A65064ADA65064B1E
:1056D000064A9A65064A1A66704700BFB40500205C
:1056E000DDD90000ADDA0000A006002029D90000B5
:1056F0000FDB000070B50C46252A00F2CC80DFE8F5
:1057000002F01337404BCACA4A6264694A4A6DCAFA
:10571000CACACA784A4A929298CAA0CACACACACA07
:10572000CACACACACAB3BCC3416840F2E240D1F88F
:105730000032B1F8F821B2FBF0F22271D1F8FC216D
:10574000B3FBF0F3B2FBF0F2E3716271C3F3072332
:10575000C2F30722A2712372B1F8043263721B0AEA
:10576000A3722046B1F80612BDE8704008F024BCD0
:105770004368D3F8E81120460131BDE8704008F0D5
:105780001FBC02784368012A02D193F8203101E05E
:1057900093F82931237170BD4568204605F50B71DA
:1057A00008F015FC05F50D71204608F01AFC05F50A
:1057B0000371204608F018FC05F588712046BDE805
:1057C000704008F018BC4368DFE7BDE87040084649
:1057D00000F03EB9BDE8704000F04CB90E230B71EB
:1057E00059234B7100238B716B23CB7110230B72E8
:1057F000D1E70378456873B995F820315BB195F826
:105800001D11204608F042FC95F81C112046BDE809
:10581000704008F03FBC95F81B11204608F036FC9C
:1058200095F81A11F2E741682046BDE8704008F08B
:10583000E5BD436893F836210A7193F837314B710F
:10584000A9E7456895F8F30108F0A7F80146204656
:1058500008F016FC95F8F20108F09FF80146204682
:10586000BDE8704008F00ABC0D4B1B68002B92D0BD
:1058700002462320BDE870401847094B1B68002BE7
:1058800089D002462420F5E7054B1B68002B82D007
:1058900002462520EEE740F2FE315120FAF7E8FFFC
:1058A0008C0700203A289ABF024B53F820000020B2
:1058B000704700BFB40500203A289ABF024B53F846
:1058C00020000020704700BFA0060020F7B5456803
:1058D0002E6904464FF6FF770DF102010DF101022A
:1058E0003046ADF8027006F0A0FA01A9304606F085
:1058F000BFFA40B1019806F080FB61680022027295
:10590000FFF7A0FDE8E7044905F1A80003B0BDE8F2
:10591000F04008F00ABC00BF2DE4000038B5436831
:1059200093F88E201B2A044624D1002283F8D1202C
:1059300083F8CC2083F83622436893F8D2101D8870
:1059400003F5D17069B10C4983F8D220A3F8AC51AA
:1059500083F8AB2108F0E6FB6368002083F88E0033
:1059600038BD012283F8AB11A3F8AC51034983F889
:10597000AE21EFE70220F3E785E6000077E60000BE
:1059800010B5426892F88F00E0B94C680E4B8968F8
:10599000A2F8CE002340C2F8E23021F41E51C3F336
:1059A000076343F0080321F01001090482F8E53091
:1059B0000123090C82F8D0300423C2F8E61082F8E3
:1059C0008F3010BD0120FCE72FC904F738B54368BC
:1059D00093F88E20042A32D14D681B4A8C682A40E5
:1059E000C3F8E22024F41E54C2F3076242F0080216
:1059F00024F0100483F8E52024040022240C83F80A
:105A00008E204068C3F8E64083F8CC2080F83B2124
:105A100093F8840100F0FF0498B91A88A3F886214E
:105A200083F885414A68C3F888218A68C3F88C21C5
:105A3000064903F5BE7008F075FB204638BD012409
:105A4000FBE71446F9E700BF2FC904F7B3E70000EE
:105A500010B50446FEF792FD21F41E51044B21F0CF
:105A6000100109040340090C6360A16010BD00BF70
:105A70002FC904F737B50C464568FEF77FFD0A4B82
:105A800095F8E22021F41E5121F010010340090491
:105A90000093090C13408DF8003001916B4603CB45
:105AA0006060A16003B030BD2FC904F7DB0410B5FE
:105AB000144604D5037D13B10023436310BD436B2B
:105AC0000133436308F0D5FED0E90D239A42F5D3A4
:105AD0000023436302492046BDE8104008F02BBB79
